{
    "contractName": "DividendTracker",
    "abi": [
        {
            "inputs": [
                {
                    "internalType": "address",
                    "name": "tokenAddress",
                    "type": "address"
                },
                {
                    "internalType": "uint256",
                    "name": "_minimumTokenBalanceForDividends",
                    "type": "uint256"
                }
            ],
            "stateMutability": "nonpayable",
            "type": "constructor"
        },
        {
            "anonymous": false,
            "inputs": [
                {
                    "indexed": true,
                    "internalType": "address",
                    "name": "owner",
                    "type": "address"
                },
                {
                    "indexed": true,
                    "internalType": "address",
                    "name": "spender",
                    "type": "address"
                },
                {
                    "indexed": false,
                    "internalType": "uint256",
                    "name": "value",
                    "type": "uint256"
                }
            ],
            "name": "Approval",
            "type": "event"
        },
        {
            "anonymous": false,
            "inputs": [
                {
                    "indexed": true,
                    "internalType": "address",
                    "name": "account",
                    "type": "address"
                },
                {
                    "indexed": false,
                    "internalType": "uint256",
                    "name": "amount",
                    "type": "uint256"
                },
                {
                    "indexed": true,
                    "internalType": "bool",
                    "name": "automatic",
                    "type": "bool"
                }
            ],
            "name": "Claim",
            "type": "event"
        },
        {
            "anonymous": false,
            "inputs": [
                {
                    "indexed": true,
                    "internalType": "uint256",
                    "name": "newValue",
                    "type": "uint256"
                },
                {
                    "indexed": true,
                    "internalType": "uint256",
                    "name": "oldValue",
                    "type": "uint256"
                }
            ],
            "name": "ClaimWaitUpdated",
            "type": "event"
        },
        {
            "anonymous": false,
            "inputs": [
                {
                    "indexed": true,
                    "internalType": "address",
                    "name": "to",
                    "type": "address"
                },
                {
                    "indexed": false,
                    "internalType": "uint256",
                    "name": "weiAmount",
                    "type": "uint256"
                }
            ],
            "name": "DividendWithdrawn",
            "type": "event"
        },
        {
            "anonymous": false,
            "inputs": [
                {
                    "indexed": true,
                    "internalType": "address",
                    "name": "from",
                    "type": "address"
                },
                {
                    "indexed": false,
                    "internalType": "uint256",
                    "name": "weiAmount",
                    "type": "uint256"
                }
            ],
            "name": "DividendsDistributed",
            "type": "event"
        },
        {
            "anonymous": false,
            "inputs": [
                {
                    "indexed": true,
                    "internalType": "address",
                    "name": "account",
                    "type": "address"
                }
            ],
            "name": "ExcludeFromDividends",
            "type": "event"
        },
        {
            "anonymous": false,
            "inputs": [
                {
                    "indexed": true,
                    "internalType": "address",
                    "name": "previousOwner",
                    "type": "address"
                },
                {
                    "indexed": true,
                    "internalType": "address",
                    "name": "newOwner",
                    "type": "address"
                }
            ],
            "name": "OwnershipTransferred",
            "type": "event"
        },
        {
            "anonymous": false,
            "inputs": [
                {
                    "indexed": true,
                    "internalType": "address",
                    "name": "from",
                    "type": "address"
                },
                {
                    "indexed": true,
                    "internalType": "address",
                    "name": "to",
                    "type": "address"
                },
                {
                    "indexed": false,
                    "internalType": "uint256",
                    "name": "value",
                    "type": "uint256"
                }
            ],
            "name": "Transfer",
            "type": "event"
        },
        {
            "inputs": [
                {
                    "internalType": "address",
                    "name": "_owner",
                    "type": "address"
                }
            ],
            "name": "accumulativeDividendOf",
            "outputs": [
                {
                    "internalType": "uint256",
                    "name": "",
                    "type": "uint256"
                }
            ],
            "stateMutability": "view",
            "type": "function"
        },
        {
            "inputs": [
                {
                    "internalType": "address",
                    "name": "owner",
                    "type": "address"
                },
                {
                    "internalType": "address",
                    "name": "spender",
                    "type": "address"
                }
            ],
            "name": "allowance",
            "outputs": [
                {
                    "internalType": "uint256",
                    "name": "",
                    "type": "uint256"
                }
            ],
            "stateMutability": "view",
            "type": "function"
        },
        {
            "inputs": [
                {
                    "internalType": "address",
                    "name": "spender",
                    "type": "address"
                },
                {
                    "internalType": "uint256",
                    "name": "amount",
                    "type": "uint256"
                }
            ],
            "name": "approve",
            "outputs": [
                {
                    "internalType": "bool",
                    "name": "",
                    "type": "bool"
                }
            ],
            "stateMutability": "nonpayable",
            "type": "function"
        },
        {
            "inputs": [
                {
                    "internalType": "address",
                    "name": "account",
                    "type": "address"
                }
            ],
            "name": "balanceOf",
            "outputs": [
                {
                    "internalType": "uint256",
                    "name": "",
                    "type": "uint256"
                }
            ],
            "stateMutability": "view",
            "type": "function"
        },
        {
            "inputs": [],
            "name": "claimWait",
            "outputs": [
                {
                    "internalType": "uint256",
                    "name": "",
                    "type": "uint256"
                }
            ],
            "stateMutability": "view",
            "type": "function"
        },
        {
            "inputs": [],
            "name": "decimals",
            "outputs": [
                {
                    "internalType": "uint8",
                    "name": "",
                    "type": "uint8"
                }
            ],
            "stateMutability": "view",
            "type": "function"
        },
        {
            "inputs": [
                {
                    "internalType": "address",
                    "name": "spender",
                    "type": "address"
                },
                {
                    "internalType": "uint256",
                    "name": "subtractedValue",
                    "type": "uint256"
                }
            ],
            "name": "decreaseAllowance",
            "outputs": [
                {
                    "internalType": "bool",
                    "name": "",
                    "type": "bool"
                }
            ],
            "stateMutability": "nonpayable",
            "type": "function"
        },
        {
            "inputs": [
                {
                    "internalType": "uint256",
                    "name": "amount",
                    "type": "uint256"
                }
            ],
            "name": "distributeDividends",
            "outputs": [],
            "stateMutability": "nonpayable",
            "type": "function"
        },
        {
            "inputs": [
                {
                    "internalType": "address",
                    "name": "_owner",
                    "type": "address"
                }
            ],
            "name": "dividendOf",
            "outputs": [
                {
                    "internalType": "uint256",
                    "name": "",
                    "type": "uint256"
                }
            ],
            "stateMutability": "view",
            "type": "function"
        },
        {
            "inputs": [
                {
                    "internalType": "address",
                    "name": "account",
                    "type": "address"
                }
            ],
            "name": "excludeFromDividends",
            "outputs": [],
            "stateMutability": "nonpayable",
            "type": "function"
        },
        {
            "inputs": [
                {
                    "internalType": "address",
                    "name": "",
                    "type": "address"
                }
            ],
            "name": "excludedFromDividends",
            "outputs": [
                {
                    "internalType": "bool",
                    "name": "",
                    "type": "bool"
                }
            ],
            "stateMutability": "view",
            "type": "function"
        },
        {
            "inputs": [
                {
                    "internalType": "address",
                    "name": "_account",
                    "type": "address"
                }
            ],
            "name": "getAccount",
            "outputs": [
                {
                    "internalType": "address",
                    "name": "account",
                    "type": "address"
                },
                {
                    "internalType": "int256",
                    "name": "index",
                    "type": "int256"
                },
                {
                    "internalType": "int256",
                    "name": "iterationsUntilProcessed",
                    "type": "int256"
                },
                {
                    "internalType": "uint256",
                    "name": "withdrawableDividends",
                    "type": "uint256"
                },
                {
                    "internalType": "uint256",
                    "name": "totalDividends",
                    "type": "uint256"
                },
                {
                    "internalType": "uint256",
                    "name": "lastClaimTime",
                    "type": "uint256"
                },
                {
                    "internalType": "uint256",
                    "name": "nextClaimTime",
                    "type": "uint256"
                },
                {
                    "internalType": "uint256",
                    "name": "secondsUntilAutoClaimAvailable",
                    "type": "uint256"
                }
            ],
            "stateMutability": "view",
            "type": "function"
        },
        {
            "inputs": [
                {
                    "internalType": "uint256",
                    "name": "index",
                    "type": "uint256"
                }
            ],
            "name": "getAccountAtIndex",
            "outputs": [
                {
                    "internalType": "address",
                    "name": "",
                    "type": "address"
                },
                {
                    "internalType": "int256",
                    "name": "",
                    "type": "int256"
                },
                {
                    "internalType": "int256",
                    "name": "",
                    "type": "int256"
                },
                {
                    "internalType": "uint256",
                    "name": "",
                    "type": "uint256"
                },
                {
                    "internalType": "uint256",
                    "name": "",
                    "type": "uint256"
                },
                {
                    "internalType": "uint256",
                    "name": "",
                    "type": "uint256"
                },
                {
                    "internalType": "uint256",
                    "name": "",
                    "type": "uint256"
                },
                {
                    "internalType": "uint256",
                    "name": "",
                    "type": "uint256"
                }
            ],
            "stateMutability": "view",
            "type": "function"
        },
        {
            "inputs": [],
            "name": "getLastProcessedIndex",
            "outputs": [
                {
                    "internalType": "uint256",
                    "name": "",
                    "type": "uint256"
                }
            ],
            "stateMutability": "view",
            "type": "function"
        },
        {
            "inputs": [],
            "name": "getNumberOfTokenHolders",
            "outputs": [
                {
                    "internalType": "uint256",
                    "name": "",
                    "type": "uint256"
                }
            ],
            "stateMutability": "view",
            "type": "function"
        },
        {
            "inputs": [
                {
                    "internalType": "address",
                    "name": "spender",
                    "type": "address"
                },
                {
                    "internalType": "uint256",
                    "name": "addedValue",
                    "type": "uint256"
                }
            ],
            "name": "increaseAllowance",
            "outputs": [
                {
                    "internalType": "bool",
                    "name": "",
                    "type": "bool"
                }
            ],
            "stateMutability": "nonpayable",
            "type": "function"
        },
        {
            "inputs": [
                {
                    "internalType": "address",
                    "name": "",
                    "type": "address"
                }
            ],
            "name": "lastClaimTimes",
            "outputs": [
                {
                    "internalType": "uint256",
                    "name": "",
                    "type": "uint256"
                }
            ],
            "stateMutability": "view",
            "type": "function"
        },
        {
            "inputs": [],
            "name": "lastProcessedIndex",
            "outputs": [
                {
                    "internalType": "uint256",
                    "name": "",
                    "type": "uint256"
                }
            ],
            "stateMutability": "view",
            "type": "function"
        },
        {
            "inputs": [],
            "name": "minimumTokenBalanceForDividends",
            "outputs": [
                {
                    "internalType": "uint256",
                    "name": "",
                    "type": "uint256"
                }
            ],
            "stateMutability": "view",
            "type": "function"
        },
        {
            "inputs": [],
            "name": "name",
            "outputs": [
                {
                    "internalType": "string",
                    "name": "",
                    "type": "string"
                }
            ],
            "stateMutability": "view",
            "type": "function"
        },
        {
            "inputs": [],
            "name": "owner",
            "outputs": [
                {
                    "internalType": "address",
                    "name": "",
                    "type": "address"
                }
            ],
            "stateMutability": "view",
            "type": "function"
        },
        {
            "inputs": [
                {
                    "internalType": "uint256",
                    "name": "gas",
                    "type": "uint256"
                }
            ],
            "name": "process",
            "outputs": [
                {
                    "internalType": "uint256",
                    "name": "",
                    "type": "uint256"
                },
                {
                    "internalType": "uint256",
                    "name": "",
                    "type": "uint256"
                },
                {
                    "internalType": "uint256",
                    "name": "",
                    "type": "uint256"
                }
            ],
            "stateMutability": "nonpayable",
            "type": "function"
        },
        {
            "inputs": [
                {
                    "internalType": "address payable",
                    "name": "account",
                    "type": "address"
                },
                {
                    "internalType": "bool",
                    "name": "automatic",
                    "type": "bool"
                }
            ],
            "name": "processAccount",
            "outputs": [
                {
                    "internalType": "bool",
                    "name": "",
                    "type": "bool"
                }
            ],
            "stateMutability": "nonpayable",
            "type": "function"
        },
        {
            "inputs": [],
            "name": "renounceOwnership",
            "outputs": [],
            "stateMutability": "nonpayable",
            "type": "function"
        },
        {
            "inputs": [],
            "name": "rewardsToken",
            "outputs": [
                {
                    "internalType": "address",
                    "name": "",
                    "type": "address"
                }
            ],
            "stateMutability": "view",
            "type": "function"
        },
        {
            "inputs": [
                {
                    "internalType": "address payable",
                    "name": "account",
                    "type": "address"
                },
                {
                    "internalType": "uint256",
                    "name": "newBalance",
                    "type": "uint256"
                }
            ],
            "name": "setBalance",
            "outputs": [],
            "stateMutability": "nonpayable",
            "type": "function"
        },
        {
            "inputs": [],
            "name": "symbol",
            "outputs": [
                {
                    "internalType": "string",
                    "name": "",
                    "type": "string"
                }
            ],
            "stateMutability": "view",
            "type": "function"
        },
        {
            "inputs": [],
            "name": "totalDividendsDistributed",
            "outputs": [
                {
                    "internalType": "uint256",
                    "name": "",
                    "type": "uint256"
                }
            ],
            "stateMutability": "view",
            "type": "function"
        },
        {
            "inputs": [],
            "name": "totalSupply",
            "outputs": [
                {
                    "internalType": "uint256",
                    "name": "",
                    "type": "uint256"
                }
            ],
            "stateMutability": "view",
            "type": "function"
        },
        {
            "inputs": [
                {
                    "internalType": "address",
                    "name": "to",
                    "type": "address"
                },
                {
                    "internalType": "uint256",
                    "name": "amount",
                    "type": "uint256"
                }
            ],
            "name": "transfer",
            "outputs": [
                {
                    "internalType": "bool",
                    "name": "",
                    "type": "bool"
                }
            ],
            "stateMutability": "nonpayable",
            "type": "function"
        },
        {
            "inputs": [
                {
                    "internalType": "address",
                    "name": "from",
                    "type": "address"
                },
                {
                    "internalType": "address",
                    "name": "to",
                    "type": "address"
                },
                {
                    "internalType": "uint256",
                    "name": "amount",
                    "type": "uint256"
                }
            ],
            "name": "transferFrom",
            "outputs": [
                {
                    "internalType": "bool",
                    "name": "",
                    "type": "bool"
                }
            ],
            "stateMutability": "nonpayable",
            "type": "function"
        },
        {
            "inputs": [
                {
                    "internalType": "address",
                    "name": "newOwner",
                    "type": "address"
                }
            ],
            "name": "transferOwnership",
            "outputs": [],
            "stateMutability": "nonpayable",
            "type": "function"
        },
        {
            "inputs": [
                {
                    "internalType": "uint256",
                    "name": "newClaimWait",
                    "type": "uint256"
                }
            ],
            "name": "updateClaimWait",
            "outputs": [],
            "stateMutability": "nonpayable",
            "type": "function"
        },
        {
            "inputs": [],
            "name": "withdrawDividend",
            "outputs": [],
            "stateMutability": "pure",
            "type": "function"
        },
        {
            "inputs": [
                {
                    "internalType": "address",
                    "name": "_owner",
                    "type": "address"
                }
            ],
            "name": "withdrawableDividendOf",
            "outputs": [
                {
                    "internalType": "uint256",
                    "name": "",
                    "type": "uint256"
                }
            ],
            "stateMutability": "view",
            "type": "function"
        },
        {
            "inputs": [
                {
                    "internalType": "address",
                    "name": "_owner",
                    "type": "address"
                }
            ],
            "name": "withdrawnDividendOf",
            "outputs": [
                {
                    "internalType": "uint256",
                    "name": "",
                    "type": "uint256"
                }
            ],
            "stateMutability": "view",
            "type": "function"
        }
    ],
    "bytecode": "60806040523480156200001157600080fd5b50604051620020ac380380620020ac833981016040819052620000349162000132565b604080518082018252600f8082526e2234bb34b232b72faa3930b1b5b2b960891b60208084018290528451808601909552918452908301529083828260036200007e838262000213565b5060046200008d828262000213565b505050620000aa620000a4620000dc60201b60201c565b620000e0565b600680546001600160a01b0319166001600160a01b03929092169190911790555050610e1060125560135550620002df565b3390565b600580546001600160a01b038381166001600160a01b0319831681179093556040519116919082907f8be0079c531659141344cd1fd0a4f28419497f9722a3daafe3b4186f6b6457e090600090a35050565b600080604083850312156200014657600080fd5b82516001600160a01b03811681146200015e57600080fd5b6020939093015192949293505050565b634e487b7160e01b600052604160045260246000fd5b600181811c908216806200019957607f821691505b602082108103620001ba57634e487b7160e01b600052602260045260246000fd5b50919050565b601f8211156200020e57600081815260208120601f850160051c81016020861015620001e95750805b601f850160051c820191505b818110156200020a57828155600101620001f5565b5050505b505050565b81516001600160401b038111156200022f576200022f6200016e565b620002478162000240845462000184565b84620001c0565b602080601f8311600181146200027f5760008415620002665750858301515b600019600386901b1c1916600185901b1785556200020a565b600085815260208120601f198616915b82811015620002b0578886015182559484019460019091019084016200028f565b5085821015620002cf5787850151600019600388901b60f8161c191681555b5050505050600190811b01905550565b611dbd80620002ef6000396000f3fe608060405234801561001057600080fd5b506004361061021c5760003560e01c806385a6b3ae11610125578063be10b614116100ad578063e7841ec01161007c578063e7841ec0146104d2578063e98030c7146104da578063f2fde38b146104ed578063fbcbc0f114610500578063ffb2c4791461051357600080fd5b8063be10b61414610490578063d1af0c7d14610499578063dd62ed3e146104ac578063e30443bc146104bf57600080fd5b8063a457c2d7116100f4578063a457c2d71461041b578063a8b9d2401461042e578063a9059cbb14610441578063aafd847a14610454578063bc4c4b371461047d57600080fd5b806385a6b3ae146103d25780638da5cb5b146103db57806391b89fba1461040057806395d89b411461041357600080fd5b806331e79db0116101a85780635183d6fd116101775780635183d6fd146103385780636a474002146103905780636f2789ec1461039857806370a08231146103a1578063715018a6146103ca57600080fd5b806331e79db0146102da5780633243c791146102ef57806339509351146103025780634e7b827f1461031557600080fd5b8063226cfa3d116101ef578063226cfa3d1461027c57806323b872dd1461029c57806327ce0147146102af5780633009a609146102c2578063313ce567146102cb57600080fd5b806306fdde0314610221578063095ea7b31461023f57806309bbedde1461026257806318160ddd14610274575b600080fd5b610229610541565b6040516102369190611a93565b60405180910390f35b61025261024d366004611af6565b6105d3565b6040519015158152602001610236565b600b545b604051908152602001610236565b600254610266565b61026661028a366004611b22565b60116020526000908152604090205481565b6102526102aa366004611b3f565b6105ed565b6102666102bd366004611b22565b610611565b610266600f5481565b60405160128152602001610236565b6102ed6102e8366004611b22565b61066d565b005b6102ed6102fd366004611b80565b610772565b610252610310366004611af6565b61080e565b610252610323366004611b22565b60106020526000908152604090205460ff1681565b61034b610346366004611b80565b610830565b604080516001600160a01b0390991689526020890197909752958701949094526060860192909252608085015260a084015260c083015260e082015261010001610236565b6102ed610984565b61026660125481565b6102666103af366004611b22565b6001600160a01b031660009081526020819052604090205490565b6102ed610a34565b610266600a5481565b6005546001600160a01b03165b6040516001600160a01b039091168152602001610236565b61026661040e366004611b22565b610a46565b610229610a51565b610252610429366004611af6565b610a60565b61026661043c366004611b22565b610adb565b61025261044f366004611af6565b610b07565b610266610462366004611b22565b6001600160a01b031660009081526009602052604090205490565b61025261048b366004611ba7565b610b15565b61026660135481565b6006546103e8906001600160a01b031681565b6102666104ba366004611be0565b610ba0565b6102ed6104cd366004611af6565b610bcb565b600f54610266565b6102ed6104e8366004611b80565b610d13565b6102ed6104fb366004611b22565b610e5a565b61034b61050e366004611b22565b610ed0565b610526610521366004611b80565b611039565b60408051938452602084019290925290820152606001610236565b60606003805461055090611c0e565b80601f016020809104026020016040519081016040528092919081815260200182805461057c90611c0e565b80156105c95780601f1061059e576101008083540402835291602001916105c9565b820191906000526020600020905b8154815290600101906020018083116105ac57829003601f168201915b5050505050905090565b6000336105e1818585611156565b60019150505b92915050565b6000336105fb85828561127a565b6106068585856112f4565b506001949350505050565b6001600160a01b03811660009081526008602090815260408083205491839052822054600754600160801b926106639261065e9261065891610653919061134b565b6113d4565b906113e4565b611422565b6105e79190611c5e565b610675611435565b6001600160a01b03811660009081526010602052604090205460ff161561069b57600080fd5b6001600160a01b0381166000908152601060205260408120805460ff191660011790556106c990829061148f565b60405163131836e760e21b8152600b60048201526001600160a01b038216602482015273__$7035348ad9f77ac86284e9b32a2fd94877$__90634c60db9c9060440160006040518083038186803b15801561072357600080fd5b505af4158015610737573d6000803e3d6000fd5b50506040516001600160a01b03841692507fa878b31040b2e6d0a9a3d3361209db3908ba62014b0dca52adbaee451d128b259150600090a250565b61077a611435565b600061078560025490565b1161078f57600080fd5b801561080b576107c26107a160025490565b6107af83600160801b61134b565b6107b99190611c5e565b600754906114ee565b60075560405181815233907fa493a9229478c3fcd73f66d2cdeb7f94fd0f341da924d1054236d784541165119060200160405180910390a2600a5461080790826114ee565b600a555b50565b6000336105e18185856108218383610ba0565b61082b9190611c80565b611156565b600080600080600080600080600b73__$7035348ad9f77ac86284e9b32a2fd94877$__63deb3d89690916040518263ffffffff1660e01b815260040161087891815260200190565b602060405180830381865af4158015610895573d6000803e3d6000fd5b505050506040513d601f19601f820116820180604052508101906108b99190611c93565b89106108de575060009650600019955085945086935083925082915081905080610979565b6040516368d54f3f60e11b8152600b6004820152602481018a905260009073__$7035348ad9f77ac86284e9b32a2fd94877$__9063d1aa9e7e90604401602060405180830381865af4158015610938573d6000803e3d6000fd5b505050506040513d601f19601f8201168201806040525081019061095c9190611cac565b905061096781610ed0565b98509850985098509850985098509850505b919395975091939597565b60405162461bcd60e51b815260206004820152606c60248201527f4469766964656e645f547261636b65723a20776974686472617744697669646560448201527f6e642064697361626c65642e20557365207468652027636c61696d272066756e60648201527f6374696f6e206f6e20746865206d61696e204469766964656e645f547261636b60848201526b32b91031b7b73a3930b1ba1760a11b60a482015260c4015b60405180910390fd5b565b610a3c611435565b610a32600061154d565b60006105e782610adb565b60606004805461055090611c0e565b60003381610a6e8286610ba0565b905083811015610ace5760405162461bcd60e51b815260206004820152602560248201527f45524332303a2064656372656173656420616c6c6f77616e63652062656c6f77604482015264207a65726f60d81b6064820152608401610a29565b6106068286868403611156565b6001600160a01b0381166000908152600960205260408120546105e790610b0184610611565b9061159f565b6000336105e18185856112f4565b6000610b1f611435565b6000610b2a846115fb565b90508015610b96576001600160a01b038416600081815260116020526040908190204290555184151591907fa2c38e2d2fb7e3e1912d937fd1ca11ed6d51864dee4cfa7a7bf02becd7acf09290610b849085815260200190565b60405180910390a360019150506105e7565b5060009392505050565b6001600160a01b03918216600090815260016020908152604080832093909416825291909152205490565b610bd3611435565b6001600160a01b03821660009081526010602052604090205460ff16610d0f576013548110610c8457610c06828261148f565b604051632f0ad01760e21b8152600b60048201526001600160a01b03831660248201526044810182905273__$7035348ad9f77ac86284e9b32a2fd94877$__9063bc2b405c9060640160006040518083038186803b158015610c6757600080fd5b505af4158015610c7b573d6000803e3d6000fd5b50505050610d02565b610c8f82600061148f565b60405163131836e760e21b8152600b60048201526001600160a01b038316602482015273__$7035348ad9f77ac86284e9b32a2fd94877$__90634c60db9c9060440160006040518083038186803b158015610ce957600080fd5b505af4158015610cfd573d6000803e3d6000fd5b505050505b610d0d826001610b15565b505b5050565b610d1b611435565b610e108110158015610d305750620151808111155b610db05760405162461bcd60e51b815260206004820152604560248201527f4469766964656e645f547261636b65723a20636c61696d57616974206d75737460448201527f206265207570646174656420746f206265747765656e203120616e6420323420606482015264686f75727360d81b608482015260a401610a29565b6012548103610e275760405162461bcd60e51b815260206004820152603760248201527f4469766964656e645f547261636b65723a2043616e6e6f74207570646174652060448201527f636c61696d5761697420746f2073616d652076616c75650000000000000000006064820152608401610a29565b60125460405182907f474ea64804364a1e29a4487ddb63c3342a2dd826ccd8acf48825e680a0e6f20f90600090a3601255565b610e62611435565b6001600160a01b038116610ec75760405162461bcd60e51b815260206004820152602660248201527f4f776e61626c653a206e6577206f776e657220697320746865207a65726f206160448201526564647265737360d01b6064820152608401610a29565b61080b8161154d565b6040516317e142d160e01b8152600b60048201526001600160a01b0382166024820152819060009081908190819081908190819073__$7035348ad9f77ac86284e9b32a2fd94877$__906317e142d190604401602060405180830381865af4158015610f40573d6000803e3d6000fd5b505050506040513d601f19601f82011682018060405250810190610f649190611c93565b9650600019955060008712610fc657600f54871115610f9257600f54610f8b908890611760565b9550610fc6565b600f54600b5460009110610fa7576000610fb6565b600f54600b54610fb69161159f565b9050610fc288826113e4565b9650505b610fcf88610adb565b9450610fda88610611565b6001600160a01b038916600090815260116020526040902054909450925082611004576000611012565b6012546110129084906114ee565b915042821161102257600061102c565b61102c824261159f565b9050919395975091939597565b600b546000908190819080820361105b575050600f546000925082915061114f565b600f546000805a90506000805b898410801561107657508582105b1561113e578461108581611cc9565b600b549096508610905061109857600094505b6000600b60000186815481106110b0576110b0611ce2565b60009182526020808320909101546001600160a01b031680835260119091526040909120549091506110e1906117ac565b15611104576110f1816001610b15565b15611104578161110081611cc9565b9250505b8261110e81611cc9565b93505060005a9050808511156111355761113261112b868361159f565b87906114ee565b95505b93506110689050565b600f85905590975095509193505050505b9193909250565b6001600160a01b0383166111b85760405162461bcd60e51b8152602060048201526024808201527f45524332303a20617070726f76652066726f6d20746865207a65726f206164646044820152637265737360e01b6064820152608401610a29565b6001600160a01b0382166112195760405162461bcd60e51b815260206004820152602260248201527f45524332303a20617070726f766520746f20746865207a65726f206164647265604482015261737360f01b6064820152608401610a29565b6001600160a01b0383811660008181526001602090815260408083209487168084529482529182902085905590518481527f8c5be1e5ebec7d5bd14f71427d1e84f3dd0314c0f7b2291e5b200ac8c7c3b925910160405180910390a3505050565b60006112868484610ba0565b905060001981146112ee57818110156112e15760405162461bcd60e51b815260206004820152601d60248201527f45524332303a20696e73756666696369656e7420616c6c6f77616e63650000006044820152606401610a29565b6112ee8484848403611156565b50505050565b60405162461bcd60e51b815260206004820152602660248201527f4469766964656e645f547261636b65723a204e6f207472616e736665727320616044820152651b1b1bddd95960d21b6064820152608401610a29565b60008260000361135d575060006105e7565b60006113698385611cf8565b9050826113768583611c5e565b146113cd5760405162461bcd60e51b815260206004820152602160248201527f536166654d6174683a206d756c7469706c69636174696f6e206f766572666c6f6044820152607760f81b6064820152608401610a29565b9392505050565b600081818112156105e757600080fd5b6000806113f18385611d0f565b9050600083121580156114045750838112155b80611419575060008312801561141957508381125b6113cd57600080fd5b60008082121561143157600080fd5b5090565b6005546001600160a01b03163314610a325760405162461bcd60e51b815260206004820181905260248201527f4f776e61626c653a2063616c6c6572206973206e6f7420746865206f776e65726044820152606401610a29565b6001600160a01b038216600090815260208190526040902054808211156114ce5760006114bc838361159f565b90506114c884826117d3565b50610d0d565b80821015610d0d5760006114e2828461159f565b90506112ee8482611837565b6000806114fb8385611c80565b9050838110156113cd5760405162461bcd60e51b815260206004820152601b60248201527f536166654d6174683a206164646974696f6e206f766572666c6f7700000000006044820152606401610a29565b600580546001600160a01b038381166001600160a01b0319831681179093556040519116919082907f8be0079c531659141344cd1fd0a4f28419497f9722a3daafe3b4186f6b6457e090600090a35050565b6000828211156115f15760405162461bcd60e51b815260206004820152601e60248201527f536166654d6174683a207375627472616374696f6e206f766572666c6f7700006044820152606401610a29565b6113cd8284611d37565b60008061160783610adb565b90508015611757576001600160a01b03831660009081526009602052604090205461163290826114ee565b6001600160a01b038416600081815260096020526040908190209290925590517fee503bee2bb6a87e57bc57db795f98137327401a0e7b7ce42e37926cc1a9ca4d906116819084815260200190565b60405180910390a260065460405163a9059cbb60e01b81526001600160a01b03858116600483015260248201849052600092169063a9059cbb906044016020604051808303816000875af11580156116dd573d6000803e3d6000fd5b505050506040513d601f19601f820116820180604052508101906117019190611d4a565b905080611750576001600160a01b03841660009081526009602052604090205461172b908361159f565b6001600160a01b03909416600090815260096020526040812094909455509192915050565b5092915050565b50600092915050565b600080821215801561177b5750826117788382611d67565b13155b8061179957506000821280156117995750826117978382611d67565b135b6117a257600080fd5b6113cd8284611d67565b6000428211156117be57506000919050565b6012546117cb428461159f565b101592915050565b6117dd828261187b565b6118176117f86106538360075461134b90919063ffffffff16565b6001600160a01b03841660009081526008602052604090205490611760565b6001600160a01b0390921660009081526008602052604090209190915550565b611841828261194e565b61181761185c6106538360075461134b90919063ffffffff16565b6001600160a01b038416600090815260086020526040902054906113e4565b6001600160a01b0382166118d15760405162461bcd60e51b815260206004820152601f60248201527f45524332303a206d696e7420746f20746865207a65726f2061646472657373006044820152606401610a29565b6118dd60008383610d0d565b80600260008282546118ef9190611c80565b90915550506001600160a01b038216600081815260208181526040808320805486019055518481527fddf252ad1be2c89b69c2b068fc378daa952ba7f163c4a11628f55a4df523b3ef910160405180910390a3610d0f60008383610d0d565b6001600160a01b0382166119ae5760405162461bcd60e51b815260206004820152602160248201527f45524332303a206275726e2066726f6d20746865207a65726f206164647265736044820152607360f81b6064820152608401610a29565b6119ba82600083610d0d565b6001600160a01b03821660009081526020819052604090205481811015611a2e5760405162461bcd60e51b815260206004820152602260248201527f45524332303a206275726e20616d6f756e7420657863656564732062616c616e604482015261636560f01b6064820152608401610a29565b6001600160a01b0383166000818152602081815260408083208686039055600280548790039055518581529192917fddf252ad1be2c89b69c2b068fc378daa952ba7f163c4a11628f55a4df523b3ef910160405180910390a3610d0d83600084610d0d565b600060208083528351808285015260005b81811015611ac057858101830151858201604001528201611aa4565b506000604082860101526040601f19601f8301168501019250505092915050565b6001600160a01b038116811461080b57600080fd5b60008060408385031215611b0957600080fd5b8235611b1481611ae1565b946020939093013593505050565b600060208284031215611b3457600080fd5b81356113cd81611ae1565b600080600060608486031215611b5457600080fd5b8335611b5f81611ae1565b92506020840135611b6f81611ae1565b929592945050506040919091013590565b600060208284031215611b9257600080fd5b5035919050565b801515811461080b57600080fd5b60008060408385031215611bba57600080fd5b8235611bc581611ae1565b91506020830135611bd581611b99565b809150509250929050565b60008060408385031215611bf357600080fd5b8235611bfe81611ae1565b91506020830135611bd581611ae1565b600181811c90821680611c2257607f821691505b602082108103611c4257634e487b7160e01b600052602260045260246000fd5b50919050565b634e487b7160e01b600052601160045260246000fd5b600082611c7b57634e487b7160e01b600052601260045260246000fd5b500490565b808201808211156105e7576105e7611c48565b600060208284031215611ca557600080fd5b5051919050565b600060208284031215611cbe57600080fd5b81516113cd81611ae1565b600060018201611cdb57611cdb611c48565b5060010190565b634e487b7160e01b600052603260045260246000fd5b80820281158282048414176105e7576105e7611c48565b8082018281126000831280158216821582161715611d2f57611d2f611c48565b505092915050565b818103818111156105e7576105e7611c48565b600060208284031215611d5c57600080fd5b81516113cd81611b99565b818103600083128015838313168383128216171561175057611750611c4856fea2646970667358221220df4b0bfbc8567a91c1647aac0e1ec5a85c458895de3a36663ef42e28c780d04264736f6c63430008130033",
    "sourcePath": "/Users/kasiopea/dev/flashbot/TokenBuilderSM/contracts/DividendTracker.sol",
    "compiler": {
        "name": "solc",
        "version": "0.8.19+commit.7dd6d404"
    },
    "functionHashes": {
        "accumulativeDividendOf(address)": "27ce0147",
        "allowance(address,address)": "dd62ed3e",
        "approve(address,uint256)": "095ea7b3",
        "balanceOf(address)": "70a08231",
        "claimWait()": "6f2789ec",
        "decimals()": "313ce567",
        "decreaseAllowance(address,uint256)": "a457c2d7",
        "distributeDividends(uint256)": "3243c791",
        "dividendOf(address)": "91b89fba",
        "excludeFromDividends(address)": "31e79db0",
        "excludedFromDividends(address)": "4e7b827f",
        "getAccount(address)": "fbcbc0f1",
        "getAccountAtIndex(uint256)": "5183d6fd",
        "getLastProcessedIndex()": "e7841ec0",
        "getNumberOfTokenHolders()": "09bbedde",
        "increaseAllowance(address,uint256)": "39509351",
        "lastClaimTimes(address)": "226cfa3d",
        "lastProcessedIndex()": "3009a609",
        "minimumTokenBalanceForDividends()": "be10b614",
        "name()": "06fdde03",
        "owner()": "8da5cb5b",
        "process(uint256)": "ffb2c479",
        "processAccount(address,bool)": "bc4c4b37",
        "renounceOwnership()": "715018a6",
        "rewardsToken()": "d1af0c7d",
        "setBalance(address,uint256)": "e30443bc",
        "symbol()": "95d89b41",
        "totalDividendsDistributed()": "85a6b3ae",
        "totalSupply()": "18160ddd",
        "transfer(address,uint256)": "a9059cbb",
        "transferFrom(address,address,uint256)": "23b872dd",
        "transferOwnership(address)": "f2fde38b",
        "updateClaimWait(uint256)": "e98030c7",
        "withdrawDividend()": "6a474002",
        "withdrawableDividendOf(address)": "a8b9d240",
        "withdrawnDividendOf(address)": "aafd847a"
    },
    "gasEstimates": {
        "creation": {
            "codeDepositCost": "1522600",
            "executionCost": "infinite",
            "totalCost": "infinite"
        },
        "external": {
            "accumulativeDividendOf(address)": "infinite",
            "allowance(address,address)": "infinite",
            "approve(address,uint256)": "24668",
            "balanceOf(address)": "2645",
            "claimWait()": "2384",
            "decimals()": "311",
            "decreaseAllowance(address,uint256)": "26989",
            "distributeDividends(uint256)": "infinite",
            "dividendOf(address)": "infinite",
            "excludeFromDividends(address)": "infinite",
            "excludedFromDividends(address)": "2637",
            "getAccount(address)": "infinite",
            "getAccountAtIndex(uint256)": "infinite",
            "getLastProcessedIndex()": "2336",
            "getNumberOfTokenHolders()": "2372",
            "increaseAllowance(address,uint256)": "infinite",
            "lastClaimTimes(address)": "2559",
            "lastProcessedIndex()": "2407",
            "minimumTokenBalanceForDividends()": "2340",
            "name()": "infinite",
            "owner()": "2388",
            "process(uint256)": "infinite",
            "processAccount(address,bool)": "infinite",
            "renounceOwnership()": "infinite",
            "rewardsToken()": "2404",
            "setBalance(address,uint256)": "infinite",
            "symbol()": "infinite",
            "totalDividendsDistributed()": "2341",
            "totalSupply()": "2405",
            "transfer(address,uint256)": "567",
            "transferFrom(address,address,uint256)": "infinite",
            "transferOwnership(address)": "infinite",
            "updateClaimWait(uint256)": "30364",
            "withdrawDividend()": "368",
            "withdrawableDividendOf(address)": "infinite",
            "withdrawnDividendOf(address)": "2642"
        },
        "internal": {
            "_transfer(address,address,uint256)": "infinite",
            "canAutoClaim(uint256)": "infinite"
        }
    }
}