{
    "contractName": "Token",
    "abi": [
        {
            "inputs": [
                {
                    "internalType": "string",
                    "name": "tokenName",
                    "type": "string"
                },
                {
                    "internalType": "string",
                    "name": "tokenSymbol",
                    "type": "string"
                },
                {
                    "internalType": "uint256",
                    "name": "supply",
                    "type": "uint256"
                },
                {
                    "internalType": "uint256",
                    "name": "preMint",
                    "type": "uint256"
                },
                {
                    "internalType": "address[]",
                    "name": "addresses",
                    "type": "address[]"
                },
                {
                    "internalType": "uint16[]",
                    "name": "percents",
                    "type": "uint16[]"
                }
            ],
            "stateMutability": "nonpayable",
            "type": "constructor"
        },
        {
            "anonymous": false,
            "inputs": [
                {
                    "indexed": true,
                    "internalType": "address",
                    "name": "owner",
                    "type": "address"
                },
                {
                    "indexed": true,
                    "internalType": "address",
                    "name": "spender",
                    "type": "address"
                },
                {
                    "indexed": false,
                    "internalType": "uint256",
                    "name": "value",
                    "type": "uint256"
                }
            ],
            "name": "Approval",
            "type": "event"
        },
        {
            "anonymous": false,
            "inputs": [
                {
                    "indexed": true,
                    "internalType": "address",
                    "name": "previousOwner",
                    "type": "address"
                },
                {
                    "indexed": true,
                    "internalType": "address",
                    "name": "newOwner",
                    "type": "address"
                }
            ],
            "name": "OwnershipTransferred",
            "type": "event"
        },
        {
            "anonymous": false,
            "inputs": [
                {
                    "indexed": false,
                    "internalType": "uint256",
                    "name": "iterations",
                    "type": "uint256"
                },
                {
                    "indexed": false,
                    "internalType": "uint256",
                    "name": "claims",
                    "type": "uint256"
                },
                {
                    "indexed": false,
                    "internalType": "uint256",
                    "name": "lastProcessedIndex",
                    "type": "uint256"
                },
                {
                    "indexed": true,
                    "internalType": "bool",
                    "name": "automatic",
                    "type": "bool"
                },
                {
                    "indexed": false,
                    "internalType": "uint256",
                    "name": "gas",
                    "type": "uint256"
                },
                {
                    "indexed": true,
                    "internalType": "address",
                    "name": "processor",
                    "type": "address"
                }
            ],
            "name": "ProcessedDividendTracker",
            "type": "event"
        },
        {
            "anonymous": false,
            "inputs": [
                {
                    "indexed": false,
                    "internalType": "uint256",
                    "name": "tokensSwapped",
                    "type": "uint256"
                },
                {
                    "indexed": false,
                    "internalType": "uint256",
                    "name": "amount",
                    "type": "uint256"
                }
            ],
            "name": "SendDividends",
            "type": "event"
        },
        {
            "anonymous": false,
            "inputs": [
                {
                    "indexed": true,
                    "internalType": "address",
                    "name": "from",
                    "type": "address"
                },
                {
                    "indexed": true,
                    "internalType": "address",
                    "name": "to",
                    "type": "address"
                },
                {
                    "indexed": false,
                    "internalType": "uint256",
                    "name": "value",
                    "type": "uint256"
                }
            ],
            "name": "Transfer",
            "type": "event"
        },
        {
            "inputs": [],
            "name": "PLATFORM_FEE_PERCENT",
            "outputs": [
                {
                    "internalType": "uint256",
                    "name": "",
                    "type": "uint256"
                }
            ],
            "stateMutability": "view",
            "type": "function"
        },
        {
            "inputs": [],
            "name": "TAX_DIVISOR",
            "outputs": [
                {
                    "internalType": "uint256",
                    "name": "",
                    "type": "uint256"
                }
            ],
            "stateMutability": "view",
            "type": "function"
        },
        {
            "inputs": [],
            "name": "_feesRates",
            "outputs": [
                {
                    "internalType": "uint16",
                    "name": "buyFee",
                    "type": "uint16"
                },
                {
                    "internalType": "uint16",
                    "name": "sellFee",
                    "type": "uint16"
                },
                {
                    "internalType": "uint16",
                    "name": "transferFee",
                    "type": "uint16"
                }
            ],
            "stateMutability": "view",
            "type": "function"
        },
        {
            "inputs": [
                {
                    "internalType": "address",
                    "name": "",
                    "type": "address"
                }
            ],
            "name": "_holderLastTransferTimestamp",
            "outputs": [
                {
                    "internalType": "uint256",
                    "name": "",
                    "type": "uint256"
                }
            ],
            "stateMutability": "view",
            "type": "function"
        },
        {
            "inputs": [
                {
                    "internalType": "address",
                    "name": "",
                    "type": "address"
                }
            ],
            "name": "_isExcludedFromFee",
            "outputs": [
                {
                    "internalType": "bool",
                    "name": "",
                    "type": "bool"
                }
            ],
            "stateMutability": "view",
            "type": "function"
        },
        {
            "inputs": [
                {
                    "internalType": "address",
                    "name": "",
                    "type": "address"
                }
            ],
            "name": "_isExcludedFromMaxTx",
            "outputs": [
                {
                    "internalType": "bool",
                    "name": "",
                    "type": "bool"
                }
            ],
            "stateMutability": "view",
            "type": "function"
        },
        {
            "inputs": [
                {
                    "internalType": "address",
                    "name": "owner",
                    "type": "address"
                },
                {
                    "internalType": "address",
                    "name": "spender",
                    "type": "address"
                }
            ],
            "name": "allowance",
            "outputs": [
                {
                    "internalType": "uint256",
                    "name": "",
                    "type": "uint256"
                }
            ],
            "stateMutability": "view",
            "type": "function"
        },
        {
            "inputs": [
                {
                    "internalType": "address",
                    "name": "spender",
                    "type": "address"
                },
                {
                    "internalType": "uint256",
                    "name": "amount",
                    "type": "uint256"
                }
            ],
            "name": "approve",
            "outputs": [
                {
                    "internalType": "bool",
                    "name": "",
                    "type": "bool"
                }
            ],
            "stateMutability": "nonpayable",
            "type": "function"
        },
        {
            "inputs": [
                {
                    "internalType": "uint256",
                    "name": "tokenAmount",
                    "type": "uint256"
                }
            ],
            "name": "autoLiquidity",
            "outputs": [],
            "stateMutability": "nonpayable",
            "type": "function"
        },
        {
            "inputs": [],
            "name": "autoLiquidityPercent",
            "outputs": [
                {
                    "internalType": "uint256",
                    "name": "",
                    "type": "uint256"
                }
            ],
            "stateMutability": "view",
            "type": "function"
        },
        {
            "inputs": [
                {
                    "internalType": "address",
                    "name": "",
                    "type": "address"
                }
            ],
            "name": "automatedMarketMakerPairs",
            "outputs": [
                {
                    "internalType": "bool",
                    "name": "",
                    "type": "bool"
                }
            ],
            "stateMutability": "view",
            "type": "function"
        },
        {
            "inputs": [
                {
                    "internalType": "address",
                    "name": "account",
                    "type": "address"
                }
            ],
            "name": "balanceOf",
            "outputs": [
                {
                    "internalType": "uint256",
                    "name": "",
                    "type": "uint256"
                }
            ],
            "stateMutability": "view",
            "type": "function"
        },
        {
            "inputs": [
                {
                    "internalType": "uint256",
                    "name": "amount",
                    "type": "uint256"
                }
            ],
            "name": "burn",
            "outputs": [],
            "stateMutability": "nonpayable",
            "type": "function"
        },
        {
            "inputs": [
                {
                    "internalType": "address",
                    "name": "account",
                    "type": "address"
                },
                {
                    "internalType": "uint256",
                    "name": "amount",
                    "type": "uint256"
                }
            ],
            "name": "burnFrom",
            "outputs": [],
            "stateMutability": "nonpayable",
            "type": "function"
        },
        {
            "inputs": [],
            "name": "buyBackPercent",
            "outputs": [
                {
                    "internalType": "uint256",
                    "name": "",
                    "type": "uint256"
                }
            ],
            "stateMutability": "view",
            "type": "function"
        },
        {
            "inputs": [],
            "name": "buyBackThreshold",
            "outputs": [
                {
                    "internalType": "uint256",
                    "name": "",
                    "type": "uint256"
                }
            ],
            "stateMutability": "view",
            "type": "function"
        },
        {
            "inputs": [],
            "name": "decimals",
            "outputs": [
                {
                    "internalType": "uint8",
                    "name": "",
                    "type": "uint8"
                }
            ],
            "stateMutability": "view",
            "type": "function"
        },
        {
            "inputs": [
                {
                    "internalType": "address",
                    "name": "spender",
                    "type": "address"
                },
                {
                    "internalType": "uint256",
                    "name": "subtractedValue",
                    "type": "uint256"
                }
            ],
            "name": "decreaseAllowance",
            "outputs": [
                {
                    "internalType": "bool",
                    "name": "",
                    "type": "bool"
                }
            ],
            "stateMutability": "nonpayable",
            "type": "function"
        },
        {
            "inputs": [],
            "name": "distributionRewardsPercent",
            "outputs": [
                {
                    "internalType": "uint256",
                    "name": "",
                    "type": "uint256"
                }
            ],
            "stateMutability": "view",
            "type": "function"
        },
        {
            "inputs": [],
            "name": "dividendTokenAddress",
            "outputs": [
                {
                    "internalType": "address",
                    "name": "",
                    "type": "address"
                }
            ],
            "stateMutability": "view",
            "type": "function"
        },
        {
            "inputs": [],
            "name": "dividentTokenBridgeAddress",
            "outputs": [
                {
                    "internalType": "address",
                    "name": "",
                    "type": "address"
                }
            ],
            "stateMutability": "view",
            "type": "function"
        },
        {
            "inputs": [
                {
                    "internalType": "address",
                    "name": "account",
                    "type": "address"
                },
                {
                    "internalType": "bool",
                    "name": "val",
                    "type": "bool"
                }
            ],
            "name": "excludeFromFee",
            "outputs": [],
            "stateMutability": "nonpayable",
            "type": "function"
        },
        {
            "inputs": [
                {
                    "internalType": "address",
                    "name": "account",
                    "type": "address"
                },
                {
                    "internalType": "bool",
                    "name": "val",
                    "type": "bool"
                }
            ],
            "name": "excludeFromMaxTx",
            "outputs": [],
            "stateMutability": "nonpayable",
            "type": "function"
        },
        {
            "inputs": [],
            "name": "gasForProcessing",
            "outputs": [
                {
                    "internalType": "uint256",
                    "name": "",
                    "type": "uint256"
                }
            ],
            "stateMutability": "view",
            "type": "function"
        },
        {
            "inputs": [],
            "name": "gasLimitActive",
            "outputs": [
                {
                    "internalType": "bool",
                    "name": "",
                    "type": "bool"
                }
            ],
            "stateMutability": "view",
            "type": "function"
        },
        {
            "inputs": [],
            "name": "inSwap",
            "outputs": [
                {
                    "internalType": "bool",
                    "name": "",
                    "type": "bool"
                }
            ],
            "stateMutability": "view",
            "type": "function"
        },
        {
            "inputs": [
                {
                    "internalType": "address",
                    "name": "spender",
                    "type": "address"
                },
                {
                    "internalType": "uint256",
                    "name": "addedValue",
                    "type": "uint256"
                }
            ],
            "name": "increaseAllowance",
            "outputs": [
                {
                    "internalType": "bool",
                    "name": "",
                    "type": "bool"
                }
            ],
            "stateMutability": "nonpayable",
            "type": "function"
        },
        {
            "inputs": [],
            "name": "initialDelayTime",
            "outputs": [
                {
                    "internalType": "uint256",
                    "name": "",
                    "type": "uint256"
                }
            ],
            "stateMutability": "view",
            "type": "function"
        },
        {
            "inputs": [
                {
                    "internalType": "address",
                    "name": "account",
                    "type": "address"
                }
            ],
            "name": "isExcludedFromFee",
            "outputs": [
                {
                    "internalType": "bool",
                    "name": "",
                    "type": "bool"
                }
            ],
            "stateMutability": "view",
            "type": "function"
        },
        {
            "inputs": [
                {
                    "internalType": "address",
                    "name": "account",
                    "type": "address"
                }
            ],
            "name": "isExcludedFromMaxTx",
            "outputs": [
                {
                    "internalType": "bool",
                    "name": "",
                    "type": "bool"
                }
            ],
            "stateMutability": "view",
            "type": "function"
        },
        {
            "inputs": [],
            "name": "lpPair",
            "outputs": [
                {
                    "internalType": "address",
                    "name": "",
                    "type": "address"
                }
            ],
            "stateMutability": "view",
            "type": "function"
        },
        {
            "inputs": [],
            "name": "maxBuyLimit",
            "outputs": [
                {
                    "internalType": "uint256",
                    "name": "",
                    "type": "uint256"
                }
            ],
            "stateMutability": "view",
            "type": "function"
        },
        {
            "inputs": [],
            "name": "maxGasPriceLimit",
            "outputs": [
                {
                    "internalType": "uint256",
                    "name": "",
                    "type": "uint256"
                }
            ],
            "stateMutability": "view",
            "type": "function"
        },
        {
            "inputs": [],
            "name": "maxTransactionAmount",
            "outputs": [
                {
                    "internalType": "uint256",
                    "name": "",
                    "type": "uint256"
                }
            ],
            "stateMutability": "view",
            "type": "function"
        },
        {
            "inputs": [],
            "name": "maxWalletAmount",
            "outputs": [
                {
                    "internalType": "uint256",
                    "name": "",
                    "type": "uint256"
                }
            ],
            "stateMutability": "view",
            "type": "function"
        },
        {
            "inputs": [],
            "name": "name",
            "outputs": [
                {
                    "internalType": "string",
                    "name": "",
                    "type": "string"
                }
            ],
            "stateMutability": "view",
            "type": "function"
        },
        {
            "inputs": [],
            "name": "owner",
            "outputs": [
                {
                    "internalType": "address",
                    "name": "",
                    "type": "address"
                }
            ],
            "stateMutability": "view",
            "type": "function"
        },
        {
            "inputs": [
                {
                    "internalType": "uint256",
                    "name": "",
                    "type": "uint256"
                }
            ],
            "name": "platformFeeAddresses",
            "outputs": [
                {
                    "internalType": "address",
                    "name": "",
                    "type": "address"
                }
            ],
            "stateMutability": "view",
            "type": "function"
        },
        {
            "inputs": [],
            "name": "platformFeeAmount",
            "outputs": [
                {
                    "internalType": "uint256",
                    "name": "",
                    "type": "uint256"
                }
            ],
            "stateMutability": "view",
            "type": "function"
        },
        {
            "inputs": [
                {
                    "internalType": "uint256",
                    "name": "",
                    "type": "uint256"
                }
            ],
            "name": "platformFeePercents",
            "outputs": [
                {
                    "internalType": "uint256",
                    "name": "",
                    "type": "uint256"
                }
            ],
            "stateMutability": "view",
            "type": "function"
        },
        {
            "inputs": [],
            "name": "preMintAmount",
            "outputs": [
                {
                    "internalType": "uint256",
                    "name": "",
                    "type": "uint256"
                }
            ],
            "stateMutability": "view",
            "type": "function"
        },
        {
            "inputs": [],
            "name": "renounceOwnership",
            "outputs": [],
            "stateMutability": "nonpayable",
            "type": "function"
        },
        {
            "inputs": [],
            "name": "router",
            "outputs": [
                {
                    "internalType": "contract IUniswapV2Router02",
                    "name": "",
                    "type": "address"
                }
            ],
            "stateMutability": "view",
            "type": "function"
        },
        {
            "inputs": [
                {
                    "internalType": "uint16",
                    "name": "newPercent",
                    "type": "uint16"
                }
            ],
            "name": "setAutoLiquidityPercent",
            "outputs": [],
            "stateMutability": "nonpayable",
            "type": "function"
        },
        {
            "inputs": [
                {
                    "internalType": "uint16",
                    "name": "newPercent",
                    "type": "uint16"
                }
            ],
            "name": "setBuyBackPercent",
            "outputs": [],
            "stateMutability": "nonpayable",
            "type": "function"
        },
        {
            "inputs": [
                {
                    "internalType": "uint256",
                    "name": "newThreshold",
                    "type": "uint256"
                }
            ],
            "name": "setBuyBackThreshold",
            "outputs": [],
            "stateMutability": "nonpayable",
            "type": "function"
        },
        {
            "inputs": [
                {
                    "internalType": "uint16",
                    "name": "newPercent",
                    "type": "uint16"
                }
            ],
            "name": "setDistributionRewardsPercent",
            "outputs": [],
            "stateMutability": "nonpayable",
            "type": "function"
        },
        {
            "inputs": [
                {
                    "internalType": "uint256",
                    "name": "percent",
                    "type": "uint256"
                }
            ],
            "name": "setMaxTransactionAmount",
            "outputs": [],
            "stateMutability": "nonpayable",
            "type": "function"
        },
        {
            "inputs": [
                {
                    "internalType": "uint256",
                    "name": "percent",
                    "type": "uint256"
                }
            ],
            "name": "setMaxWalletAmount",
            "outputs": [],
            "stateMutability": "nonpayable",
            "type": "function"
        },
        {
            "inputs": [
                {
                    "internalType": "uint256",
                    "name": "value",
                    "type": "uint256"
                }
            ],
            "name": "setSwapThreshold",
            "outputs": [],
            "stateMutability": "nonpayable",
            "type": "function"
        },
        {
            "inputs": [
                {
                    "internalType": "uint16",
                    "name": "buyFee",
                    "type": "uint16"
                },
                {
                    "internalType": "uint16",
                    "name": "sellFee",
                    "type": "uint16"
                },
                {
                    "internalType": "uint16",
                    "name": "transferFee",
                    "type": "uint16"
                }
            ],
            "name": "setTaxes",
            "outputs": [],
            "stateMutability": "nonpayable",
            "type": "function"
        },
        {
            "inputs": [],
            "name": "swapThreshold",
            "outputs": [
                {
                    "internalType": "uint256",
                    "name": "",
                    "type": "uint256"
                }
            ],
            "stateMutability": "view",
            "type": "function"
        },
        {
            "inputs": [],
            "name": "symbol",
            "outputs": [
                {
                    "internalType": "string",
                    "name": "",
                    "type": "string"
                }
            ],
            "stateMutability": "view",
            "type": "function"
        },
        {
            "inputs": [],
            "name": "timeDelayBetweenTx",
            "outputs": [
                {
                    "internalType": "uint256",
                    "name": "",
                    "type": "uint256"
                }
            ],
            "stateMutability": "view",
            "type": "function"
        },
        {
            "inputs": [],
            "name": "tokenDividendTracker",
            "outputs": [
                {
                    "internalType": "contract IDividendTracker",
                    "name": "",
                    "type": "address"
                }
            ],
            "stateMutability": "view",
            "type": "function"
        },
        {
            "inputs": [],
            "name": "totalDelayTime",
            "outputs": [
                {
                    "internalType": "uint256",
                    "name": "",
                    "type": "uint256"
                }
            ],
            "stateMutability": "view",
            "type": "function"
        },
        {
            "inputs": [],
            "name": "totalSupply",
            "outputs": [
                {
                    "internalType": "uint256",
                    "name": "",
                    "type": "uint256"
                }
            ],
            "stateMutability": "view",
            "type": "function"
        },
        {
            "inputs": [
                {
                    "internalType": "address",
                    "name": "to",
                    "type": "address"
                },
                {
                    "internalType": "uint256",
                    "name": "amount",
                    "type": "uint256"
                }
            ],
            "name": "transfer",
            "outputs": [
                {
                    "internalType": "bool",
                    "name": "",
                    "type": "bool"
                }
            ],
            "stateMutability": "nonpayable",
            "type": "function"
        },
        {
            "inputs": [],
            "name": "transferDelayEnabled",
            "outputs": [
                {
                    "internalType": "bool",
                    "name": "",
                    "type": "bool"
                }
            ],
            "stateMutability": "view",
            "type": "function"
        },
        {
            "inputs": [
                {
                    "internalType": "address",
                    "name": "from",
                    "type": "address"
                },
                {
                    "internalType": "address",
                    "name": "to",
                    "type": "address"
                },
                {
                    "internalType": "uint256",
                    "name": "amount",
                    "type": "uint256"
                }
            ],
            "name": "transferFrom",
            "outputs": [
                {
                    "internalType": "bool",
                    "name": "",
                    "type": "bool"
                }
            ],
            "stateMutability": "nonpayable",
            "type": "function"
        },
        {
            "inputs": [
                {
                    "internalType": "address",
                    "name": "newOwner",
                    "type": "address"
                }
            ],
            "name": "transferOwnership",
            "outputs": [],
            "stateMutability": "nonpayable",
            "type": "function"
        },
        {
            "inputs": [],
            "name": "treasuryAddress",
            "outputs": [
                {
                    "internalType": "address",
                    "name": "",
                    "type": "address"
                }
            ],
            "stateMutability": "view",
            "type": "function"
        },
        {
            "inputs": [
                {
                    "internalType": "address",
                    "name": "newAddress",
                    "type": "address"
                },
                {
                    "internalType": "uint256",
                    "name": "percent",
                    "type": "uint256"
                }
            ],
            "name": "updateDividendTracker",
            "outputs": [],
            "stateMutability": "nonpayable",
            "type": "function"
        },
        {
            "inputs": [
                {
                    "internalType": "address",
                    "name": "newAddress",
                    "type": "address"
                }
            ],
            "name": "updateDividentTokenBridgeAddress",
            "outputs": [],
            "stateMutability": "nonpayable",
            "type": "function"
        },
        {
            "inputs": [
                {
                    "internalType": "bool",
                    "name": "newVal",
                    "type": "bool"
                }
            ],
            "name": "updateGasLimitActive",
            "outputs": [],
            "stateMutability": "nonpayable",
            "type": "function"
        },
        {
            "inputs": [
                {
                    "internalType": "uint256",
                    "name": "percent",
                    "type": "uint256"
                }
            ],
            "name": "updateMaxBuyLimit",
            "outputs": [],
            "stateMutability": "nonpayable",
            "type": "function"
        },
        {
            "inputs": [
                {
                    "internalType": "uint256",
                    "name": "newValue",
                    "type": "uint256"
                }
            ],
            "name": "updateMaxGasPriceLimit",
            "outputs": [],
            "stateMutability": "nonpayable",
            "type": "function"
        },
        {
            "inputs": [
                {
                    "internalType": "bool",
                    "name": "newVal",
                    "type": "bool"
                }
            ],
            "name": "updateTransferDelayEnabled",
            "outputs": [],
            "stateMutability": "nonpayable",
            "type": "function"
        },
        {
            "stateMutability": "payable",
            "type": "receive"
        }
    ],
    "bytecode": "60806040523480156200001157600080fd5b506040516200464338038062004643833981016040819052620000349162000e8a565b8585600362000044838262000fe3565b50600462000053828262000fe3565b505050620000706200006a62000a3b60201b60201c565b62000a3f565b8151600214620000c75760405162461bcd60e51b815260206004820152601860248201527f496e76616c6964206164647265737320617267756d656e74000000000000000060448201526064015b60405180910390fd5b80516005146200011a5760405162461bcd60e51b815260206004820152601860248201527f496e76616c69642070657263656e7420617267756d656e7400000000000000006044820152606401620000be565b6126ac81600181518110620001335762000133620010af565b602002602001015161ffff16111580156200017157506126ac81600281518110620001625762000162620010af565b602002602001015161ffff1611155b620001af5760405162461bcd60e51b815260206004820152600d60248201526c0a8dede40d0d2ced0e840e8c2f609b1b6044820152606401620000be565b81600181518110620001c557620001c5620010af565b6020026020010151600860006101000a8154816001600160a01b0302191690836001600160a01b031602179055506000612710826000815181106200020e576200020e620010af565b602002602001015161ffff1686620002279190620010db565b620002339190620010fb565b90506200025933826200024787896200111e565b6200025391906200111e565b62000a91565b8315620002785760085462000278906001600160a01b03168562000a91565b80156200028d576200028d61dead8262000a91565b81600381518110620002a357620002a3620010af565b602002602001015161ffff16600014620002fb5761271082600381518110620002d057620002d0620010af565b602002602001015161ffff1686620002e99190620010db565b620002f59190620010fb565b620002fd565b845b600c55815182906004908110620003185762000318620010af565b602002602001015161ffff16600014620003705761271082600481518110620003455762000345620010af565b602002602001015161ffff16866200035e9190620010db565b6200036a9190620010fb565b62000372565b845b60115560078054600181810183557fa66cc928b5edb82af9bd49922954155ab7b0942694bea4ce44661d9a8736c68891820180546001600160a01b0319908116737a93936c57587a5a0de1bbc0d99b61139394698c1790915583548083019094559290910180549092167318bb1d7e5dd7dd0017a828dabf16472d9fd1c6ae17909155600f805480830182556000829052611f407f8d1108e10bcb7c27dddfc02ed9d693a074039d026cf4ea4240b40f7d581ac8029182015581548084019092556107d0910155604080516060810190915283519091829185919081106200045e576200045e620010af565b602002602001015161ffff16815260200183600281518110620004855762000485620010af565b60209081029190910181015161ffff908116835260009282018390528351602280549386015160409096015183166401000000000261ffff60201b19968416620100000263ffffffff1990951692909316919091179290921793909316929092179091558351849190620004fd57620004fd620010af565b60209081029190910181015181546001600160a01b0319166001600160a01b039091169081178255604080516315ab88c960e31b81529051919263ad5c4648926004808401938290030181865afa1580156200055d573d6000803e3d6000fd5b505050506040513d601f19601f8201168201806040525081019062000583919062001134565b600a80546001600160a01b0319166001600160a01b03928316179055602080546040805163c45a015560e01b81529051919093169263c45a01559260048083019391928290030181865afa158015620005e0573d6000803e3d6000fd5b505050506040513d601f19601f8201168201806040525081019062000606919062001134565b6001600160a01b031663c9c6539630602060009054906101000a90046001600160a01b03166001600160a01b031663ad5c46486040518163ffffffff1660e01b8152600401602060405180830381865afa15801562000669573d6000803e3d6000fd5b505050506040513d601f19601f820116820180604052508101906200068f919062001134565b6040516001600160e01b031960e085901b1681526001600160a01b039283166004820152911660248201526044016020604051808303816000875af1158015620006dd573d6000803e3d6000fd5b505050506040513d601f19601f8201168201806040525081019062000703919062001134565b600680546001600160a01b0319166001600160a01b039290921691821790556000908152601e60205260408120805460ff1916600190811790915590601c90620007556005546001600160a01b031690565b6001600160a01b03908116825260208083019390935260409182016000908120805495151560ff199687161790556008549091168152601c9283905290812080549093166001908117909355600780548290620007b657620007b6620010af565b6000918252602080832091909101546001600160a01b031683528201929092526040018120805460ff19169215159290921790915560078054600192601c929091849081106200080a576200080a620010af565b60009182526020808320909101546001600160a01b031683528281019390935260409182018120805494151560ff19958616179055308152601c909252812080549092166001908117909255601d906200086c6005546001600160a01b031690565b6001600160a01b03908116825260208083019390935260409182016000908120805495151560ff199687161790556008549091168152601d9283905290812080549093166001908117909355600780548290620008cd57620008cd620010af565b6000918252602080832091909101546001600160a01b031683528201929092526040018120805460ff19169215159290921790915560078054600192601d92909184908110620009215762000921620010af565b60009182526020808320909101546001600160a01b0390811684528382019490945260409283018220805495151560ff19968716179055308252601d8152828220805486166001908117909155905484168252828220805486168217905560065490931681529081208054909316909117909155683635c9adc5dea00000600b556010819055601355670de0b6b3a7640000601255620009e2620009cd6005546001600160a01b031690565b6020546001600160a01b031660001962000b54565b602054620009fe9030906001600160a01b031660001962000b54565b5050506014919091555050601b805462ffff0019169055504260155564037e11d6006017556005601855610e10601655620493e06019556200116f565b3390565b600580546001600160a01b038381166001600160a01b0319831681179093556040519116919082907f8be0079c531659141344cd1fd0a4f28419497f9722a3daafe3b4186f6b6457e090600090a35050565b6001600160a01b03821662000ae95760405162461bcd60e51b815260206004820152601f60248201527f45524332303a206d696e7420746f20746865207a65726f2061646472657373006044820152606401620000be565b806002600082825462000afd919062001159565b90915550506001600160a01b038216600081815260208181526040808320805486019055518481527fddf252ad1be2c89b69c2b068fc378daa952ba7f163c4a11628f55a4df523b3ef910160405180910390a35050565b6001600160a01b03831662000bb85760405162461bcd60e51b8152602060048201526024808201527f45524332303a20617070726f76652066726f6d20746865207a65726f206164646044820152637265737360e01b6064820152608401620000be565b6001600160a01b03821662000c1b5760405162461bcd60e51b815260206004820152602260248201527f45524332303a20617070726f766520746f20746865207a65726f206164647265604482015261737360f01b6064820152608401620000be565b6001600160a01b0383811660008181526001602090815260408083209487168084529482529182902085905590518481527f8c5be1e5ebec7d5bd14f71427d1e84f3dd0314c0f7b2291e5b200ac8c7c3b925910160405180910390a3505050565b505050565b634e487b7160e01b600052604160045260246000fd5b604051601f8201601f191681016001600160401b038111828210171562000cc25762000cc262000c81565b604052919050565b600082601f83011262000cdc57600080fd5b81516001600160401b0381111562000cf85762000cf862000c81565b602062000d0e601f8301601f1916820162000c97565b828152858284870101111562000d2357600080fd5b60005b8381101562000d4357858101830151828201840152820162000d26565b506000928101909101919091529392505050565b60006001600160401b0382111562000d735762000d7362000c81565b5060051b60200190565b80516001600160a01b038116811462000d9557600080fd5b919050565b600082601f83011262000dac57600080fd5b8151602062000dc562000dbf8362000d57565b62000c97565b82815260059290921b8401810191818101908684111562000de557600080fd5b8286015b8481101562000e0b5762000dfd8162000d7d565b835291830191830162000de9565b509695505050505050565b600082601f83011262000e2857600080fd5b8151602062000e3b62000dbf8362000d57565b82815260059290921b8401810191818101908684111562000e5b57600080fd5b8286015b8481101562000e0b57805161ffff8116811462000e7c5760008081fd5b835291830191830162000e5f565b60008060008060008060c0878903121562000ea457600080fd5b86516001600160401b038082111562000ebc57600080fd5b62000eca8a838b0162000cca565b9750602089015191508082111562000ee157600080fd5b62000eef8a838b0162000cca565b96506040890151955060608901519450608089015191508082111562000f1457600080fd5b62000f228a838b0162000d9a565b935060a089015191508082111562000f3957600080fd5b5062000f4889828a0162000e16565b9150509295509295509295565b600181811c9082168062000f6a57607f821691505b60208210810362000f8b57634e487b7160e01b600052602260045260246000fd5b50919050565b601f82111562000c7c57600081815260208120601f850160051c8101602086101562000fba5750805b601f850160051c820191505b8181101562000fdb5782815560010162000fc6565b505050505050565b81516001600160401b0381111562000fff5762000fff62000c81565b620010178162001010845462000f55565b8462000f91565b602080601f8311600181146200104f5760008415620010365750858301515b600019600386901b1c1916600185901b17855562000fdb565b600085815260208120601f198616915b8281101562001080578886015182559484019460019091019084016200105f565b50858210156200109f5787850151600019600388901b60f8161c191681555b5050505050600190811b01905550565b634e487b7160e01b600052603260045260246000fd5b634e487b7160e01b600052601160045260246000fd5b8082028115828204841417620010f557620010f5620010c5565b92915050565b6000826200111957634e487b7160e01b600052601260045260246000fd5b500490565b81810381811115620010f557620010f5620010c5565b6000602082840312156200114757600080fd5b620011528262000d7d565b9392505050565b80820180821115620010f557620010f5620010c5565b6134c4806200117f6000396000f3fe6080604052600436106103f35760003560e01c8063768dc71011610208578063bd74c04611610118578063dd62ed3e116100ab578063efac45851161007a578063efac458514610beb578063f2fde38b14610c0b578063f311732214610c2b578063f887ea4014610c4b578063f901796614610c6b57600080fd5b8063dd62ed3e14610b7f578063deb5896e14610b9f578063df8408fe14610bb5578063edf731c514610bd557600080fd5b8063c8c8ebe4116100e7578063c8c8ebe414610b02578063cd5f101d14610b18578063d4c989d314610b45578063d830678614610b6557600080fd5b8063bd74c04614610a8c578063c5f956af14610aa2578063c6aca36b14610ac2578063c876d0b914610ae257600080fd5b80639d0014b11161019b578063a9059cbb1161016a578063a9059cbb146109e6578063aa4bde2814610a06578063b559f9b614610a1c578063b62496f514610a3c578063b9c6ec5014610a6c57600080fd5b80639d0014b114610970578063a2065e7114610990578063a335d4ff146109b0578063a457c2d7146109c657600080fd5b80638d0cb35a116101d75780638d0cb35a146109075780638da5cb5b1461092757806395d89b41146109455780639c1b8af51461095a57600080fd5b8063768dc7101461087757806379cc6790146108a75780637dee3290146108c7578063883bfec4146108e757600080fd5b806332cde664116103035780635342acb4116102965780636aa5b37f116102655780636aa5b37f146107f65780636f15d9751461080c57806370a0823114610822578063715018a614610842578063738c6c091461085757600080fd5b80635342acb41461074f57806354fb8e4014610788578063560d52d4146107a8578063658c27a9146107bd57600080fd5b806342966c68116102d257806342966c68146106d9578063452ed4f1146106f957806345b1b441146107195780634a569e941461073957600080fd5b806332cde6641461064b57806335dcb05e1461066b57806339509351146106a35780633d90fff9146106c357600080fd5b80631630e97f116103865780631e293c10116103555780631e293c10146105b95780631e94ed07146105d957806323b872dd146105ef57806327a14fc21461060f578063313ce5671461062f57600080fd5b80631630e97f1461051857806318160ddd146105385780631b11c8741461054d5780631c06a7e11461056357600080fd5b8063095ea7b3116103c2578063095ea7b3146104a0578063123e6cd8146104c057806313fa254a146104e2578063148829f51461050257600080fd5b80630445b667146103ff57806306fdde0314610428578063078662911461044a578063094d776f1461048a57600080fd5b366103fa57005b600080fd5b34801561040b57600080fd5b50610415600b5481565b6040519081526020015b60405180910390f35b34801561043457600080fd5b5061043d610c8a565b60405161041f9190612f5f565b34801561045657600080fd5b5061047a610465366004612fc2565b601d6020526000908152604090205460ff1681565b604051901515815260200161041f565b34801561049657600080fd5b5061041560165481565b3480156104ac57600080fd5b5061047a6104bb366004612fe6565b610d1c565b3480156104cc57600080fd5b506104e06104db366004613029565b610d36565b005b3480156104ee57600080fd5b506104156104fd366004613044565b610d90565b34801561050e57600080fd5b50610415600e5481565b34801561052457600080fd5b506104e0610533366004613044565b610db1565b34801561054457600080fd5b50600254610415565b34801561055957600080fd5b5061041560175481565b34801561056f57600080fd5b506022546105949061ffff808216916201000081048216916401000000009091041683565b6040805161ffff9485168152928416602084015292169181019190915260600161041f565b3480156105c557600080fd5b506104e06105d4366004613044565b610e24565b3480156105e557600080fd5b50610415601a5481565b3480156105fb57600080fd5b5061047a61060a36600461305d565b610e53565b34801561061b57600080fd5b506104e061062a366004613044565b610e77565b34801561063b57600080fd5b506040516012815260200161041f565b34801561065757600080fd5b506104e061066636600461309e565b610ea6565b34801561067757600080fd5b5060095461068b906001600160a01b031681565b6040516001600160a01b03909116815260200161041f565b3480156106af57600080fd5b5061047a6106be366004612fe6565b610f45565b3480156106cf57600080fd5b5061041560185481565b3480156106e557600080fd5b506104e06106f4366004613044565b610f67565b34801561070557600080fd5b5060065461068b906001600160a01b031681565b34801561072557600080fd5b506104e0610734366004613029565b610f74565b34801561074557600080fd5b5061041560135481565b34801561075b57600080fd5b5061047a61076a366004612fc2565b6001600160a01b03166000908152601c602052604090205460ff1690565b34801561079457600080fd5b506104e06107a3366004612fc2565b610fc5565b3480156107b457600080fd5b50610415603281565b3480156107c957600080fd5b5061047a6107d8366004612fc2565b6001600160a01b03166000908152601d602052604090205460ff1690565b34801561080257600080fd5b5061041560145481565b34801561081857600080fd5b5061041560125481565b34801561082e57600080fd5b5061041561083d366004612fc2565b6110b9565b34801561084e57600080fd5b506104e06110d4565b34801561086357600080fd5b506104e0610872366004613029565b61116c565b34801561088357600080fd5b5061047a610892366004612fc2565b601c6020526000908152604090205460ff1681565b3480156108b357600080fd5b506104e06108c2366004612fe6565b6111bd565b3480156108d357600080fd5b506104e06108e2366004613044565b6111d6565b3480156108f357600080fd5b50600a5461068b906001600160a01b031681565b34801561091357600080fd5b506104e06109223660046130ef565b611205565b34801561093357600080fd5b506005546001600160a01b031661068b565b34801561095157600080fd5b5061043d611227565b34801561096657600080fd5b5061041560195481565b34801561097c57600080fd5b506104e061098b366004613044565b611236565b34801561099c57600080fd5b506104e06109ab3660046130ef565b611243565b3480156109bc57600080fd5b5061041561271081565b3480156109d257600080fd5b5061047a6109e1366004612fe6565b611267565b3480156109f257600080fd5b5061047a610a01366004612fe6565b6112e2565b348015610a1257600080fd5b50610415600c5481565b348015610a2857600080fd5b5060215461068b906001600160a01b031681565b348015610a4857600080fd5b5061047a610a57366004612fc2565b601e6020526000908152604090205460ff1681565b348015610a7857600080fd5b506104e0610a87366004612fe6565b6112f0565b348015610a9857600080fd5b50610415600d5481565b348015610aae57600080fd5b5060085461068b906001600160a01b031681565b348015610ace57600080fd5b506104e0610add366004613044565b61165f565b348015610aee57600080fd5b50601b5461047a9062010000900460ff1681565b348015610b0e57600080fd5b5061041560115481565b348015610b2457600080fd5b50610415610b33366004612fc2565b601f6020526000908152604090205481565b348015610b5157600080fd5b506104e0610b6036600461310c565b611697565b348015610b7157600080fd5b50601b5461047a9060ff1681565b348015610b8b57600080fd5b50610415610b9a366004613145565b6116ca565b348015610bab57600080fd5b5061041560105481565b348015610bc157600080fd5b506104e0610bd036600461310c565b6116f5565b348015610be157600080fd5b5061041560155481565b348015610bf757600080fd5b506104e0610c06366004613044565b611728565b348015610c1757600080fd5b506104e0610c26366004612fc2565b611735565b348015610c3757600080fd5b5061068b610c46366004613044565b6117ab565b348015610c5757600080fd5b5060205461068b906001600160a01b031681565b348015610c7757600080fd5b50601b5461047a90610100900460ff1681565b606060038054610c9990613173565b80601f0160208091040260200160405190810160405280929190818152602001828054610cc590613173565b8015610d125780601f10610ce757610100808354040283529160200191610d12565b820191906000526020600020905b815481529060010190602001808311610cf557829003601f168201915b5050505050905090565b600033610d2a8185856117d5565b60019150505b92915050565b610d3e6118f9565b612710601a546010548361ffff16610d5691906131c3565b610d6091906131c3565b1115610d875760405162461bcd60e51b8152600401610d7e906131d6565b60405180910390fd5b61ffff16601355565b600f8181548110610da057600080fd5b600091825260209091200154905081565b610db96118f9565b6402540be400811015610e1f5760405162461bcd60e51b815260206004820152602860248201527f6d6178206761732070726963652063616e74206265206c6f776572207468616e604482015267203130206757656960c01b6064820152608401610d7e565b601755565b610e2c6118f9565b61271081610e3960025490565b610e43919061320b565b610e4d9190613222565b60115550565b600033610e61858285611953565b610e6c8585856119c7565b506001949350505050565b610e7f6118f9565b61271081610e8c60025490565b610e96919061320b565b610ea09190613222565b600c5550565b610eae6118f9565b6126ac8361ffff1611158015610eca57506126ac8261ffff1611155b610f065760405162461bcd60e51b815260206004820152600d60248201526c0a8dede40d0d2ced0e840e8c2f609b1b6044820152606401610d7e565b6022805461ffff94851663ffffffff199091161762010000938516939093029290921765ffff0000000019166401000000009190931602919091179055565b600033610d2a818585610f5883836116ca565b610f6291906131c3565b6117d5565b610f713382611b1b565b50565b610f7c6118f9565b6127106010546013548361ffff16610f9491906131c3565b610f9e91906131c3565b1115610fbc5760405162461bcd60e51b8152600401610d7e906131d6565b61ffff16601a55565b610fcd6118f9565b600a546001600160a01b03908116908216036110415760405162461bcd60e51b815260206004820152602d60248201527f546865206469766964656e6420747261636b657220616c72656164792068617360448201526c2074686174206164647265737360981b6064820152608401610d7e565b6001600160a01b0381166110975760405162461bcd60e51b815260206004820152601b60248201527f6e65772061646472657373206973205a65726f206164647265737300000000006044820152606401610d7e565b600a80546001600160a01b0319166001600160a01b0392909216919091179055565b6001600160a01b031660009081526020819052604090205490565b6110dc6118f9565b60225461119461ffff90911610801561110357506022546111946201000090910461ffff16105b6111605760405162461bcd60e51b815260206004820152602860248201527f546f6f206869676874207461782c2063616e27742072656e6f756e6365206f776044820152673732b939b434b81760c11b6064820152608401610d7e565b61116a6000611c4d565b565b6111746118f9565b612710601a546013548361ffff1661118c91906131c3565b61119691906131c3565b11156111b45760405162461bcd60e51b8152600401610d7e906131d6565b61ffff16601055565b6111c8823383611953565b6111d28282611b1b565b5050565b6111de6118f9565b612710816111eb60025490565b6111f5919061320b565b6111ff9190613222565b60145550565b61120d6118f9565b601b80549115156101000261ff0019909216919091179055565b606060048054610c9990613173565b61123e6118f9565b600b55565b61124b6118f9565b601b8054911515620100000262ff000019909216919091179055565b6000338161127582866116ca565b9050838110156112d55760405162461bcd60e51b815260206004820152602560248201527f45524332303a2064656372656173656420616c6c6f77616e63652062656c6f77604482015264207a65726f60d81b6064820152608401610d7e565b610e6c82868684036117d5565b600033610d2a8185856119c7565b6112f86118f9565b6001600160a01b03821661134e5760405162461bcd60e51b815260206004820152601b60248201527f6e65772061646472657373206973205a65726f206164647265737300000000006044820152606401610d7e565b6113888111156113925760405162461bcd60e51b815260206004820152600f60248201526e1a5b9d985b1a59081c195c98d95b9d608a1b6044820152606401610d7e565b602180546001600160a01b0319166001600160a01b03841690811790915560405163031e79db60e41b8152600481018290526331e79db090602401600060405180830381600087803b1580156113e757600080fd5b505af11580156113fb573d6000803e3d6000fd5b505060215460405163031e79db60e41b81523060048201526001600160a01b0390911692506331e79db09150602401600060405180830381600087803b15801561144457600080fd5b505af1158015611458573d6000803e3d6000fd5b50506021546001600160a01b031691506331e79db090506114816005546001600160a01b031690565b6040516001600160e01b031960e084901b1681526001600160a01b039091166004820152602401600060405180830381600087803b1580156114c257600080fd5b505af11580156114d6573d6000803e3d6000fd5b505060215460205460405163031e79db60e41b81526001600160a01b039182166004820152911692506331e79db09150602401600060405180830381600087803b15801561152357600080fd5b505af1158015611537573d6000803e3d6000fd5b505060215460065460405163031e79db60e41b81526001600160a01b039182166004820152911692506331e79db09150602401600060405180830381600087803b15801561158457600080fd5b505af1158015611598573d6000803e3d6000fd5b5050506001600160a01b038084166000908152601c60209081526040808320805460ff199081166001908117909255601d845293829020805490941617909255601a859055602154825163d1af0c7d60e01b815292519316935063d1af0c7d926004808401938290030181865afa158015611617573d6000803e3d6000fd5b505050506040513d601f19601f8201168201806040525081019061163b9190613244565b600980546001600160a01b0319166001600160a01b03929092169190911790555050565b600061166c600283613222565b9050476116798230611c9f565b60006116858247613261565b90506116918382611dfe565b50505050565b61169f6118f9565b6001600160a01b03919091166000908152601d60205260409020805460ff1916911515919091179055565b6001600160a01b03918216600090815260016020908152604080832093909416825291909152205490565b6116fd6118f9565b6001600160a01b03919091166000908152601c60205260409020805460ff1916911515919091179055565b6117306118f9565b601255565b61173d6118f9565b6001600160a01b0381166117a25760405162461bcd60e51b815260206004820152602660248201527f4f776e61626c653a206e6577206f776e657220697320746865207a65726f206160448201526564647265737360d01b6064820152608401610d7e565b610f7181611c4d565b600781815481106117bb57600080fd5b6000918252602090912001546001600160a01b0316905081565b6001600160a01b0383166118375760405162461bcd60e51b8152602060048201526024808201527f45524332303a20617070726f76652066726f6d20746865207a65726f206164646044820152637265737360e01b6064820152608401610d7e565b6001600160a01b0382166118985760405162461bcd60e51b815260206004820152602260248201527f45524332303a20617070726f766520746f20746865207a65726f206164647265604482015261737360f01b6064820152608401610d7e565b6001600160a01b0383811660008181526001602090815260408083209487168084529482529182902085905590518481527f8c5be1e5ebec7d5bd14f71427d1e84f3dd0314c0f7b2291e5b200ac8c7c3b925910160405180910390a3505050565b6005546001600160a01b0316331461116a5760405162461bcd60e51b815260206004820181905260248201527f4f776e61626c653a2063616c6c6572206973206e6f7420746865206f776e65726044820152606401610d7e565b600061195f84846116ca565b9050600019811461169157818110156119ba5760405162461bcd60e51b815260206004820152601d60248201527f45524332303a20696e73756666696369656e7420616c6c6f77616e63650000006044820152606401610d7e565b61169184848484036117d5565b6119d2838383611eb5565b601b5460ff16156119ed576119e883838361241f565b505050565b6119f783836125c3565b15611a0457611a04612673565b611a0f838383612890565b6021546001600160a01b0316156119e8576021546001600160a01b031663e30443bc84611a3b816110b9565b6040516001600160e01b031960e085901b1681526001600160a01b0390921660048301526024820152604401600060405180830381600087803b158015611a8157600080fd5b505af1925050508015611a92575060015b506021546001600160a01b031663e30443bc83611aae816110b9565b6040516001600160e01b031960e085901b1681526001600160a01b0390921660048301526024820152604401600060405180830381600087803b158015611af457600080fd5b505af1925050508015611b05575060015b50601b5460ff166119e8576119e8601954612966565b6001600160a01b038216611b7b5760405162461bcd60e51b815260206004820152602160248201527f45524332303a206275726e2066726f6d20746865207a65726f206164647265736044820152607360f81b6064820152608401610d7e565b6001600160a01b03821660009081526020819052604090205481811015611bef5760405162461bcd60e51b815260206004820152602260248201527f45524332303a206275726e20616d6f756e7420657863656564732062616c616e604482015261636560f01b6064820152608401610d7e565b6001600160a01b0383166000818152602081815260408083208686039055600280548790039055518581529192917fddf252ad1be2c89b69c2b068fc378daa952ba7f163c4a11628f55a4df523b3ef910160405180910390a3505050565b600580546001600160a01b038381166001600160a01b0319831681179093556040519116919082907f8be0079c531659141344cd1fd0a4f28419497f9722a3daafe3b4186f6b6457e090600090a35050565b6040805160028082526060820183526000926020830190803683370190505090503081600081518110611cd457611cd461328a565b6001600160a01b039283166020918202929092018101919091528054604080516315ab88c960e31b81529051919093169263ad5c46489260048083019391928290030181865afa158015611d2c573d6000803e3d6000fd5b505050506040513d601f19601f82011682018060405250810190611d509190613244565b81600181518110611d6357611d6361328a565b6001600160a01b03928316602091820292909201810191909152544291611d8d91309116866117d5565b60205460405163791ac94760e01b81526001600160a01b039091169063791ac94790611dc69087906000908790899088906004016132e4565b600060405180830381600087803b158015611de057600080fd5b505af1158015611df4573d6000803e3d6000fd5b5050505050505050565b6020544290611e1a9030906001600160a01b03166000196117d5565b60205460405163f305d71960e01b81523060048201819052602482018690526000604483018190526064830152608482015260a481018390526001600160a01b039091169063f305d71990849060c40160606040518083038185885af1158015611e88573d6000803e3d6000fd5b50505050506040513d601f19601f82011682018060405250810190611ead9190613320565b505050505050565b6001600160a01b038316611f215760405162461bcd60e51b815260206004820152602d60248201527f45524332303a207472616e736665722066726f6d20746865205a45524f5f414460448201526c4452455353206164647265737360981b6064820152608401610d7e565b6001600160a01b038216611f8b5760405162461bcd60e51b815260206004820152602b60248201527f45524332303a207472616e7366657220746f20746865205a45524f5f4144445260448201526a455353206164647265737360a81b6064820152608401610d7e565b60008111611ff55760405162461bcd60e51b815260206004820152603160248201527f5472616e7366657220616d6f756e74206d7573742062652067726561746572206044820152707468616e205a45524f5f4144445245535360781b6064820152608401610d7e565b601b5462010000900460ff16801561201b575060165460155461201891906131c3565b42105b156121b6576005546001600160a01b0384811691161480159061204c57506020546001600160a01b03838116911614155b801561206657506006546001600160a01b03838116911614155b801561207b57506001600160a01b0382163014155b156121b657601454156120cb576014548111156120cb5760405162461bcd60e51b815260206004820152600e60248201526d26b0bc10213abc902634b6b4ba1760911b6044820152606401610d7e565b601b54610100900460ff161561212d576017543a111561212d5760405162461bcd60e51b815260206004820152601860248201527f4761732070726963652065786365656473206c696d69742e00000000000000006044820152606401610d7e565b336000908152601f60205260409020544210156121985760405162461bcd60e51b815260206004820152602360248201527f5f7472616e736665723a3a205472616e736665722044656c617920656e61626c60448201526232b21760e91b6064820152608401610d7e565b6018546121a590426131c3565b336000908152601f60205260409020555b6005546001600160a01b038481169116148015906121e257506005546001600160a01b03838116911614155b80156121f657506001600160a01b03821615155b801561220d57506001600160a01b03821661dead14155b801561222257506001600160a01b0382163014155b80156122315750601b5460ff16155b156119e8576001600160a01b0383166000908152601e602052604090205460ff1615612341576001600160a01b0382166000908152601d602052604090205460ff166119e8576011548111156122e75760405162461bcd60e51b815260206004820152603560248201527f427579207472616e7366657220616d6f756e742065786365656473207468652060448201527436b0bc2a3930b739b0b1ba34b7b720b6b7bab73a1760591b6064820152608401610d7e565b600c546122f3836110b9565b6122fd90836131c3565b11156119e85760405162461bcd60e51b815260206004820152601360248201527213585e081dd85b1b195d08195e18d959591959606a1b6044820152606401610d7e565b6001600160a01b0382166000908152601e602052604090205460ff16156123f3576001600160a01b0382166000908152601d602052604090205460ff166119e8576011548111156119e85760405162461bcd60e51b815260206004820152603660248201527f53656c6c207472616e7366657220616d6f756e742065786365656473207468656044820152751036b0bc2a3930b739b0b1ba34b7b720b6b7bab73a1760511b6064820152608401610d7e565b6001600160a01b0382166000908152601d602052604090205460ff166119e857600c546122f3836110b9565b6001600160a01b0383166124835760405162461bcd60e51b815260206004820152602560248201527f45524332303a207472616e736665722066726f6d20746865207a65726f206164604482015264647265737360d81b6064820152608401610d7e565b6001600160a01b0382166124e55760405162461bcd60e51b815260206004820152602360248201527f45524332303a207472616e7366657220746f20746865207a65726f206164647260448201526265737360e81b6064820152608401610d7e565b6001600160a01b0383166000908152602081905260409020548181101561255d5760405162461bcd60e51b815260206004820152602660248201527f45524332303a207472616e7366657220616d6f756e7420657863656564732062604482015265616c616e636560d01b6064820152608401610d7e565b6001600160a01b03848116600081815260208181526040808320878703905593871680835291849020805487019055925185815290927fddf252ad1be2c89b69c2b068fc378daa952ba7f163c4a11628f55a4df523b3ef910160405180910390a3611691565b6000806125cf306110b9565b9050600b5481101580156125e65750601b5460ff16155b801561260057506006546001600160a01b03858116911614155b8015612621575060065460009061261f906001600160a01b03166110b9565b115b801561264657506001600160a01b0383166000908152601c602052604090205460ff16155b801561266b57506001600160a01b0384166000908152601c602052604090205460ff16155b949350505050565b601b805460ff19166001179055600061268b306110b9565b600d549091501561277257600d546126a38183613261565b6000600d5560075490925081905b801561276e5760008160011461270657612710600f6126d1600185613261565b815481106126e1576126e161328a565b9060005260206000200154856126f7919061320b565b6127019190613222565b612708565b825b905061274581600761271b600186613261565b8154811061272b5761272b61328a565b6000918252602090912001546001600160a01b0316611c9f565b600182111561275b576127588184613261565b92505b50806127668161334e565b9150506126b1565b5050505b61277b306110b9565b9050801561288357601354156127af576127af6127106013548361279f919061320b565b6127a99190613222565b30611c9f565b601054156127d5576127d5612710601054836127cb919061320b565b610add9190613222565b6000612710601a546013546010546127ed91906131c3565b6127f791906131c3565b612801908461320b565b61280b9190613222565b6128159083613261565b90508015612834576008546128349082906001600160a01b0316611c9f565b60125415612856576012544790811115612854576128548161dead612a28565b505b601a541561288157612881612710601a5484612872919061320b565b61287c9190613222565b612b8d565b505b50601b805460ff19169055565b6001600160a01b0383166000908152601c6020526040902054819060019060ff16806128d457506001600160a01b0384166000908152601c602052604090205460ff165b156128dd575060005b8015612954576000806128f1878787612d37565b9092509050600061290282846131c3565b111561295157806129138387613261565b61291d9190613261565b9350801561293d5780600d600082825461293791906131c3565b90915550505b612951873061294c84866131c3565b61241f565b50505b61295f85858461241f565b5050505050565b6021546040516001624d3b8760e01b03198152600481018390526001600160a01b039091169063ffb2c479906024016060604051808303816000875af19250505080156129d0575060408051601f3d908101601f191682019092526129cd91810190613320565b60015b15610f715760408051848152602081018490529081018290526060810185905232906001907fc864333d6121033635ab41b29ae52f10a22cf4438c3e4f1c4c68518feb2f8a989060800160405180910390a350505050565b604080516002808252606082018352600092602083019080368337505060208054604080516315ab88c960e31b815290519495506001600160a01b039091169363ad5c46489350600480830193928290030181865afa158015612a8f573d6000803e3d6000fd5b505050506040513d601f19601f82011682018060405250810190612ab39190613244565b81600081518110612ac657612ac661328a565b60200260200101906001600160a01b031690816001600160a01b0316815250503081600181518110612afa57612afa61328a565b6001600160a01b0392831660209182029290920181019190915254604051637ff36ab560e01b815242929190911690637ff36ab5908690612b4690600090879089908890600401613365565b60006040518083038185885af1158015612b64573d6000803e3d6000fd5b50505050506040513d6000823e601f3d908101601f1916820160405261295f919081019061339a565b600954612ba69030906001600160a01b03168382612e20565b6009546040516370a0823160e01b81523060048201526000916001600160a01b0316906370a0823190602401602060405180830381865afa158015612bef573d6000803e3d6000fd5b505050506040513d601f19601f82011682018060405250810190612c139190613458565b60095460215460405163a9059cbb60e01b81526001600160a01b0391821660048201526024810184905292935060009291169063a9059cbb906044016020604051808303816000875af1158015612c6e573d6000803e3d6000fd5b505050506040513d601f19601f82011682018060405250810190612c929190613471565b905080156119e857602154604051633243c79160e01b8152600481018490526001600160a01b0390911690633243c79190602401600060405180830381600087803b158015612ce057600080fd5b505af1158015612cf4573d6000803e3d6000fd5b505060408051868152602081018690527f80195cc573b02cc48460cbca6e6e4cc85ddb91959d946e1c3025ea3d87942dc3935001905060405180910390a1505050565b6001600160a01b0383166000908152601e60205260408120548190819081908190819060ff1615612d7a57602254612d739061ffff16856131c3565b9350612dd2565b6001600160a01b0388166000908152601e602052604090205460ff1615612db257602254612d739062010000900461ffff16856131c3565b602254612dcb90640100000000900461ffff16856131c3565b9350600190505b8315612df257612710612de5858961320b565b612def9190613222565b92505b80612e1257612710612e0560328961320b565b612e0f9190613222565b91505b509097909650945050505050565b60408051600380825260808201909252600091602082016060803683370190505090508481600081518110612e5757612e5761328a565b6001600160a01b039283166020918202929092010152600a54825191169082906001908110612e8857612e8861328a565b60200260200101906001600160a01b031690816001600160a01b0316815250508381600281518110612ebc57612ebc61328a565b6001600160a01b0392831660209182029290920181019190915254612ee491309116856117d5565b6020546001600160a01b0316635c11d7958460008486612f06426103e86131c3565b6040518663ffffffff1660e01b8152600401612f269594939291906132e4565b600060405180830381600087803b158015612f4057600080fd5b505af1158015612f54573d6000803e3d6000fd5b505050505050505050565b600060208083528351808285015260005b81811015612f8c57858101830151858201604001528201612f70565b506000604082860101526040601f19601f8301168501019250505092915050565b6001600160a01b0381168114610f7157600080fd5b600060208284031215612fd457600080fd5b8135612fdf81612fad565b9392505050565b60008060408385031215612ff957600080fd5b823561300481612fad565b946020939093013593505050565b803561ffff8116811461302457600080fd5b919050565b60006020828403121561303b57600080fd5b612fdf82613012565b60006020828403121561305657600080fd5b5035919050565b60008060006060848603121561307257600080fd5b833561307d81612fad565b9250602084013561308d81612fad565b929592945050506040919091013590565b6000806000606084860312156130b357600080fd5b6130bc84613012565b92506130ca60208501613012565b91506130d860408501613012565b90509250925092565b8015158114610f7157600080fd5b60006020828403121561310157600080fd5b8135612fdf816130e1565b6000806040838503121561311f57600080fd5b823561312a81612fad565b9150602083013561313a816130e1565b809150509250929050565b6000806040838503121561315857600080fd5b823561316381612fad565b9150602083013561313a81612fad565b600181811c9082168061318757607f821691505b6020821081036131a757634e487b7160e01b600052602260045260246000fd5b50919050565b634e487b7160e01b600052601160045260246000fd5b80820180821115610d3057610d306131ad565b6020808252818101527f50657263656e742063616e7420626520686967686572207468616e2031303025604082015260600190565b8082028115828204841417610d3057610d306131ad565b60008261323f57634e487b7160e01b600052601260045260246000fd5b500490565b60006020828403121561325657600080fd5b8151612fdf81612fad565b81810381811115610d3057610d306131ad565b634e487b7160e01b600052604160045260246000fd5b634e487b7160e01b600052603260045260246000fd5b600081518084526020808501945080840160005b838110156132d95781516001600160a01b0316875295820195908201906001016132b4565b509495945050505050565b85815284602082015260a06040820152600061330360a08301866132a0565b6001600160a01b0394909416606083015250608001529392505050565b60008060006060848603121561333557600080fd5b8351925060208401519150604084015190509250925092565b60008161335d5761335d6131ad565b506000190190565b84815260806020820152600061337e60808301866132a0565b6001600160a01b03949094166040830152506060015292915050565b600060208083850312156133ad57600080fd5b825167ffffffffffffffff808211156133c557600080fd5b818501915085601f8301126133d957600080fd5b8151818111156133eb576133eb613274565b8060051b604051601f19603f8301168101818110858211171561341057613410613274565b60405291825284820192508381018501918883111561342e57600080fd5b938501935b8285101561344c57845184529385019392850192613433565b98975050505050505050565b60006020828403121561346a57600080fd5b5051919050565b60006020828403121561348357600080fd5b8151612fdf816130e156fea2646970667358221220a3d721612b69be363036f7053378d4522162c5fd0e834ac7fd087017a4793b9e64736f6c63430008130033",
    "sourcePath": "/Users/kasiopea/dev/flashbot/TokenBuilderSM/contracts/Token.sol",
    "compiler": {
        "name": "solc",
        "version": "0.8.19+commit.7dd6d404"
    },
    "functionHashes": {
        "PLATFORM_FEE_PERCENT()": "560d52d4",
        "TAX_DIVISOR()": "a335d4ff",
        "_feesRates()": "1c06a7e1",
        "_holderLastTransferTimestamp(address)": "cd5f101d",
        "_isExcludedFromFee(address)": "768dc710",
        "_isExcludedFromMaxTx(address)": "07866291",
        "allowance(address,address)": "dd62ed3e",
        "approve(address,uint256)": "095ea7b3",
        "autoLiquidity(uint256)": "c6aca36b",
        "autoLiquidityPercent()": "deb5896e",
        "automatedMarketMakerPairs(address)": "b62496f5",
        "balanceOf(address)": "70a08231",
        "burn(uint256)": "42966c68",
        "burnFrom(address,uint256)": "79cc6790",
        "buyBackPercent()": "4a569e94",
        "buyBackThreshold()": "6f15d975",
        "decimals()": "313ce567",
        "decreaseAllowance(address,uint256)": "a457c2d7",
        "distributionRewardsPercent()": "1e94ed07",
        "dividendTokenAddress()": "35dcb05e",
        "dividentTokenBridgeAddress()": "883bfec4",
        "excludeFromFee(address,bool)": "df8408fe",
        "excludeFromMaxTx(address,bool)": "d4c989d3",
        "gasForProcessing()": "9c1b8af5",
        "gasLimitActive()": "f9017966",
        "inSwap()": "d8306786",
        "increaseAllowance(address,uint256)": "39509351",
        "initialDelayTime()": "edf731c5",
        "isExcludedFromFee(address)": "5342acb4",
        "isExcludedFromMaxTx(address)": "658c27a9",
        "lpPair()": "452ed4f1",
        "maxBuyLimit()": "6aa5b37f",
        "maxGasPriceLimit()": "1b11c874",
        "maxTransactionAmount()": "c8c8ebe4",
        "maxWalletAmount()": "aa4bde28",
        "name()": "06fdde03",
        "owner()": "8da5cb5b",
        "platformFeeAddresses(uint256)": "f3117322",
        "platformFeeAmount()": "bd74c046",
        "platformFeePercents(uint256)": "13fa254a",
        "preMintAmount()": "148829f5",
        "renounceOwnership()": "715018a6",
        "router()": "f887ea40",
        "setAutoLiquidityPercent(uint16)": "738c6c09",
        "setBuyBackPercent(uint16)": "123e6cd8",
        "setBuyBackThreshold(uint256)": "efac4585",
        "setDistributionRewardsPercent(uint16)": "45b1b441",
        "setMaxTransactionAmount(uint256)": "1e293c10",
        "setMaxWalletAmount(uint256)": "27a14fc2",
        "setSwapThreshold(uint256)": "9d0014b1",
        "setTaxes(uint16,uint16,uint16)": "32cde664",
        "swapThreshold()": "0445b667",
        "symbol()": "95d89b41",
        "timeDelayBetweenTx()": "3d90fff9",
        "tokenDividendTracker()": "b559f9b6",
        "totalDelayTime()": "094d776f",
        "totalSupply()": "18160ddd",
        "transfer(address,uint256)": "a9059cbb",
        "transferDelayEnabled()": "c876d0b9",
        "transferFrom(address,address,uint256)": "23b872dd",
        "transferOwnership(address)": "f2fde38b",
        "treasuryAddress()": "c5f956af",
        "updateDividendTracker(address,uint256)": "b9c6ec50",
        "updateDividentTokenBridgeAddress(address)": "54fb8e40",
        "updateGasLimitActive(bool)": "8d0cb35a",
        "updateMaxBuyLimit(uint256)": "7dee3290",
        "updateMaxGasPriceLimit(uint256)": "1630e97f",
        "updateTransferDelayEnabled(bool)": "a2065e71"
    },
    "gasEstimates": {
        "creation": {
            "codeDepositCost": "2701600",
            "executionCost": "infinite",
            "totalCost": "infinite"
        },
        "external": {
            "PLATFORM_FEE_PERCENT()": "296",
            "TAX_DIVISOR()": "296",
            "_feesRates()": "2551",
            "_holderLastTransferTimestamp(address)": "2591",
            "_isExcludedFromFee(address)": "2594",
            "_isExcludedFromMaxTx(address)": "2639",
            "allowance(address,address)": "infinite",
            "approve(address,uint256)": "24668",
            "autoLiquidity(uint256)": "infinite",
            "autoLiquidityPercent()": "2373",
            "automatedMarketMakerPairs(address)": "2658",
            "balanceOf(address)": "2646",
            "burn(uint256)": "50816",
            "burnFrom(address,uint256)": "77543",
            "buyBackPercent()": "2418",
            "buyBackThreshold()": "2373",
            "decimals()": "333",
            "decreaseAllowance(address,uint256)": "27078",
            "distributionRewardsPercent()": "2374",
            "dividendTokenAddress()": "2428",
            "dividentTokenBridgeAddress()": "2472",
            "excludeFromFee(address,bool)": "infinite",
            "excludeFromMaxTx(address,bool)": "infinite",
            "gasForProcessing()": "2418",
            "gasLimitActive()": "2475",
            "inSwap()": "2443",
            "increaseAllowance(address,uint256)": "infinite",
            "initialDelayTime()": "2417",
            "isExcludedFromFee(address)": "2611",
            "isExcludedFromMaxTx(address)": "2677",
            "lpPair()": "2427",
            "maxBuyLimit()": "2351",
            "maxGasPriceLimit()": "2397",
            "maxTransactionAmount()": "2351",
            "maxWalletAmount()": "2373",
            "name()": "infinite",
            "owner()": "2421",
            "platformFeeAddresses(uint256)": "4724",
            "platformFeeAmount()": "2352",
            "platformFeePercents(uint256)": "4677",
            "preMintAmount()": "2419",
            "renounceOwnership()": "infinite",
            "router()": "2469",
            "setAutoLiquidityPercent(uint16)": "infinite",
            "setBuyBackPercent(uint16)": "infinite",
            "setBuyBackThreshold(uint256)": "24554",
            "setDistributionRewardsPercent(uint16)": "infinite",
            "setMaxTransactionAmount(uint256)": "26833",
            "setMaxWalletAmount(uint256)": "26899",
            "setSwapThreshold(uint256)": "24556",
            "setTaxes(uint16,uint16,uint16)": "infinite",
            "swapThreshold()": "2354",
            "symbol()": "infinite",
            "timeDelayBetweenTx()": "2419",
            "tokenDividendTracker()": "2448",
            "totalDelayTime()": "2420",
            "totalSupply()": "2372",
            "transfer(address,uint256)": "infinite",
            "transferDelayEnabled()": "2455",
            "transferFrom(address,address,uint256)": "infinite",
            "transferOwnership(address)": "infinite",
            "treasuryAddress()": "2427",
            "updateDividendTracker(address,uint256)": "infinite",
            "updateDividentTokenBridgeAddress(address)": "29007",
            "updateGasLimitActive(bool)": "26769",
            "updateMaxBuyLimit(uint256)": "26878",
            "updateMaxGasPriceLimit(uint256)": "24583",
            "updateTransferDelayEnabled(bool)": "26791"
        },
        "internal": {
            "_beforeTransferCheck(address,address,uint256)": "infinite",
            "_finalizeTransfer(address,address,uint256)": "infinite",
            "_transfer(address,address,uint256)": "infinite",
            "addLiquidity(uint256,uint256)": "infinite",
            "calcBuySellTransferFee(address,address,uint256)": "infinite",
            "contractMustSwap(address,address)": "infinite",
            "doSwap()": "infinite",
            "processDividendTracker(uint256)": "infinite",
            "swapAndSendDividends(uint256)": "infinite",
            "swapNativeForTokens(uint256,address)": "infinite",
            "swapTokensForNative(uint256,address)": "infinite",
            "swapTokensForTokens(address,address,uint256,address)": "infinite"
        }
    }
}