{
  "_format": "hh-sol-artifact-1",
  "contractName": "Token",
  "sourceName": "contracts/Token.sol",
  "abi": [
    {
      "inputs": [
        {
          "internalType": "string",
          "name": "tokenName",
          "type": "string"
        },
        {
          "internalType": "string",
          "name": "tokenSymbol",
          "type": "string"
        },
        {
          "internalType": "uint256",
          "name": "supply",
          "type": "uint256"
        },
        {
          "internalType": "uint256",
          "name": "preMint",
          "type": "uint256"
        },
        {
          "internalType": "address[]",
          "name": "addresses",
          "type": "address[]"
        },
        {
          "internalType": "uint16[]",
          "name": "percents",
          "type": "uint16[]"
        }
      ],
      "stateMutability": "nonpayable",
      "type": "constructor"
    },
    {
      "anonymous": false,
      "inputs": [
        {
          "indexed": true,
          "internalType": "address",
          "name": "owner",
          "type": "address"
        },
        {
          "indexed": true,
          "internalType": "address",
          "name": "spender",
          "type": "address"
        },
        {
          "indexed": false,
          "internalType": "uint256",
          "name": "value",
          "type": "uint256"
        }
      ],
      "name": "Approval",
      "type": "event"
    },
    {
      "anonymous": false,
      "inputs": [
        {
          "indexed": true,
          "internalType": "address",
          "name": "previousOwner",
          "type": "address"
        },
        {
          "indexed": true,
          "internalType": "address",
          "name": "newOwner",
          "type": "address"
        }
      ],
      "name": "OwnershipTransferred",
      "type": "event"
    },
    {
      "anonymous": false,
      "inputs": [
        {
          "indexed": true,
          "internalType": "address",
          "name": "from",
          "type": "address"
        },
        {
          "indexed": true,
          "internalType": "address",
          "name": "to",
          "type": "address"
        },
        {
          "indexed": false,
          "internalType": "uint256",
          "name": "value",
          "type": "uint256"
        }
      ],
      "name": "Transfer",
      "type": "event"
    },
    {
      "inputs": [],
      "name": "PLATFORM_FEE_PERCENT",
      "outputs": [
        {
          "internalType": "uint256",
          "name": "",
          "type": "uint256"
        }
      ],
      "stateMutability": "view",
      "type": "function"
    },
    {
      "inputs": [],
      "name": "TAX_DIVISOR",
      "outputs": [
        {
          "internalType": "uint256",
          "name": "",
          "type": "uint256"
        }
      ],
      "stateMutability": "view",
      "type": "function"
    },
    {
      "inputs": [],
      "name": "_feesRates",
      "outputs": [
        {
          "internalType": "uint16",
          "name": "buyFee",
          "type": "uint16"
        },
        {
          "internalType": "uint16",
          "name": "sellFee",
          "type": "uint16"
        },
        {
          "internalType": "uint16",
          "name": "transferFee",
          "type": "uint16"
        }
      ],
      "stateMutability": "view",
      "type": "function"
    },
    {
      "inputs": [
        {
          "internalType": "address",
          "name": "",
          "type": "address"
        }
      ],
      "name": "_holderLastTransferTimestamp",
      "outputs": [
        {
          "internalType": "uint256",
          "name": "",
          "type": "uint256"
        }
      ],
      "stateMutability": "view",
      "type": "function"
    },
    {
      "inputs": [
        {
          "internalType": "address",
          "name": "",
          "type": "address"
        }
      ],
      "name": "_isExcludedFromFee",
      "outputs": [
        {
          "internalType": "bool",
          "name": "",
          "type": "bool"
        }
      ],
      "stateMutability": "view",
      "type": "function"
    },
    {
      "inputs": [
        {
          "internalType": "address",
          "name": "owner",
          "type": "address"
        },
        {
          "internalType": "address",
          "name": "spender",
          "type": "address"
        }
      ],
      "name": "allowance",
      "outputs": [
        {
          "internalType": "uint256",
          "name": "",
          "type": "uint256"
        }
      ],
      "stateMutability": "view",
      "type": "function"
    },
    {
      "inputs": [
        {
          "internalType": "address",
          "name": "spender",
          "type": "address"
        },
        {
          "internalType": "uint256",
          "name": "amount",
          "type": "uint256"
        }
      ],
      "name": "approve",
      "outputs": [
        {
          "internalType": "bool",
          "name": "",
          "type": "bool"
        }
      ],
      "stateMutability": "nonpayable",
      "type": "function"
    },
    {
      "inputs": [
        {
          "internalType": "uint256",
          "name": "tokenAmount",
          "type": "uint256"
        }
      ],
      "name": "autoLiquidity",
      "outputs": [],
      "stateMutability": "nonpayable",
      "type": "function"
    },
    {
      "inputs": [],
      "name": "autoLiquidityPercent",
      "outputs": [
        {
          "internalType": "uint256",
          "name": "",
          "type": "uint256"
        }
      ],
      "stateMutability": "view",
      "type": "function"
    },
    {
      "inputs": [
        {
          "internalType": "address",
          "name": "",
          "type": "address"
        }
      ],
      "name": "automatedMarketMakerPairs",
      "outputs": [
        {
          "internalType": "bool",
          "name": "",
          "type": "bool"
        }
      ],
      "stateMutability": "view",
      "type": "function"
    },
    {
      "inputs": [
        {
          "internalType": "address",
          "name": "account",
          "type": "address"
        }
      ],
      "name": "balanceOf",
      "outputs": [
        {
          "internalType": "uint256",
          "name": "",
          "type": "uint256"
        }
      ],
      "stateMutability": "view",
      "type": "function"
    },
    {
      "inputs": [
        {
          "internalType": "uint256",
          "name": "amount",
          "type": "uint256"
        }
      ],
      "name": "burn",
      "outputs": [],
      "stateMutability": "nonpayable",
      "type": "function"
    },
    {
      "inputs": [
        {
          "internalType": "address",
          "name": "account",
          "type": "address"
        },
        {
          "internalType": "uint256",
          "name": "amount",
          "type": "uint256"
        }
      ],
      "name": "burnFrom",
      "outputs": [],
      "stateMutability": "nonpayable",
      "type": "function"
    },
    {
      "inputs": [],
      "name": "buyBackPercent",
      "outputs": [
        {
          "internalType": "uint256",
          "name": "",
          "type": "uint256"
        }
      ],
      "stateMutability": "view",
      "type": "function"
    },
    {
      "inputs": [],
      "name": "buyBackThreshold",
      "outputs": [
        {
          "internalType": "uint256",
          "name": "",
          "type": "uint256"
        }
      ],
      "stateMutability": "view",
      "type": "function"
    },
    {
      "inputs": [],
      "name": "decimals",
      "outputs": [
        {
          "internalType": "uint8",
          "name": "",
          "type": "uint8"
        }
      ],
      "stateMutability": "view",
      "type": "function"
    },
    {
      "inputs": [
        {
          "internalType": "address",
          "name": "spender",
          "type": "address"
        },
        {
          "internalType": "uint256",
          "name": "subtractedValue",
          "type": "uint256"
        }
      ],
      "name": "decreaseAllowance",
      "outputs": [
        {
          "internalType": "bool",
          "name": "",
          "type": "bool"
        }
      ],
      "stateMutability": "nonpayable",
      "type": "function"
    },
    {
      "inputs": [
        {
          "internalType": "address",
          "name": "account",
          "type": "address"
        },
        {
          "internalType": "bool",
          "name": "val",
          "type": "bool"
        }
      ],
      "name": "excludeFromFee",
      "outputs": [],
      "stateMutability": "nonpayable",
      "type": "function"
    },
    {
      "inputs": [],
      "name": "gasLimitActive",
      "outputs": [
        {
          "internalType": "bool",
          "name": "",
          "type": "bool"
        }
      ],
      "stateMutability": "view",
      "type": "function"
    },
    {
      "inputs": [],
      "name": "inSwap",
      "outputs": [
        {
          "internalType": "bool",
          "name": "",
          "type": "bool"
        }
      ],
      "stateMutability": "view",
      "type": "function"
    },
    {
      "inputs": [
        {
          "internalType": "address",
          "name": "spender",
          "type": "address"
        },
        {
          "internalType": "uint256",
          "name": "addedValue",
          "type": "uint256"
        }
      ],
      "name": "increaseAllowance",
      "outputs": [
        {
          "internalType": "bool",
          "name": "",
          "type": "bool"
        }
      ],
      "stateMutability": "nonpayable",
      "type": "function"
    },
    {
      "inputs": [],
      "name": "initialDelayTime",
      "outputs": [
        {
          "internalType": "uint256",
          "name": "",
          "type": "uint256"
        }
      ],
      "stateMutability": "view",
      "type": "function"
    },
    {
      "inputs": [
        {
          "internalType": "address",
          "name": "account",
          "type": "address"
        }
      ],
      "name": "isExcludedFromFee",
      "outputs": [
        {
          "internalType": "bool",
          "name": "",
          "type": "bool"
        }
      ],
      "stateMutability": "view",
      "type": "function"
    },
    {
      "inputs": [],
      "name": "lpPair",
      "outputs": [
        {
          "internalType": "address",
          "name": "",
          "type": "address"
        }
      ],
      "stateMutability": "view",
      "type": "function"
    },
    {
      "inputs": [],
      "name": "maxBuyLimit",
      "outputs": [
        {
          "internalType": "uint256",
          "name": "",
          "type": "uint256"
        }
      ],
      "stateMutability": "view",
      "type": "function"
    },
    {
      "inputs": [],
      "name": "maxGasPriceLimit",
      "outputs": [
        {
          "internalType": "uint256",
          "name": "",
          "type": "uint256"
        }
      ],
      "stateMutability": "view",
      "type": "function"
    },
    {
      "inputs": [],
      "name": "maxTransactionAmount",
      "outputs": [
        {
          "internalType": "uint256",
          "name": "",
          "type": "uint256"
        }
      ],
      "stateMutability": "view",
      "type": "function"
    },
    {
      "inputs": [],
      "name": "maxWalletAmount",
      "outputs": [
        {
          "internalType": "uint256",
          "name": "",
          "type": "uint256"
        }
      ],
      "stateMutability": "view",
      "type": "function"
    },
    {
      "inputs": [],
      "name": "name",
      "outputs": [
        {
          "internalType": "string",
          "name": "",
          "type": "string"
        }
      ],
      "stateMutability": "view",
      "type": "function"
    },
    {
      "inputs": [],
      "name": "owner",
      "outputs": [
        {
          "internalType": "address",
          "name": "",
          "type": "address"
        }
      ],
      "stateMutability": "view",
      "type": "function"
    },
    {
      "inputs": [
        {
          "internalType": "uint256",
          "name": "",
          "type": "uint256"
        }
      ],
      "name": "platformFeeAddresses",
      "outputs": [
        {
          "internalType": "address",
          "name": "",
          "type": "address"
        }
      ],
      "stateMutability": "view",
      "type": "function"
    },
    {
      "inputs": [],
      "name": "platformFeeAmount",
      "outputs": [
        {
          "internalType": "uint256",
          "name": "",
          "type": "uint256"
        }
      ],
      "stateMutability": "view",
      "type": "function"
    },
    {
      "inputs": [
        {
          "internalType": "uint256",
          "name": "",
          "type": "uint256"
        }
      ],
      "name": "platformFeePercents",
      "outputs": [
        {
          "internalType": "uint256",
          "name": "",
          "type": "uint256"
        }
      ],
      "stateMutability": "view",
      "type": "function"
    },
    {
      "inputs": [],
      "name": "preMintAmount",
      "outputs": [
        {
          "internalType": "uint256",
          "name": "",
          "type": "uint256"
        }
      ],
      "stateMutability": "view",
      "type": "function"
    },
    {
      "inputs": [],
      "name": "renounceOwnership",
      "outputs": [],
      "stateMutability": "nonpayable",
      "type": "function"
    },
    {
      "inputs": [],
      "name": "router",
      "outputs": [
        {
          "internalType": "contract IUniswapV2Router02",
          "name": "",
          "type": "address"
        }
      ],
      "stateMutability": "view",
      "type": "function"
    },
    {
      "inputs": [
        {
          "internalType": "uint16",
          "name": "newPercent",
          "type": "uint16"
        }
      ],
      "name": "setAutoLiquidityPercent",
      "outputs": [],
      "stateMutability": "nonpayable",
      "type": "function"
    },
    {
      "inputs": [
        {
          "internalType": "uint16",
          "name": "newPercent",
          "type": "uint16"
        }
      ],
      "name": "setBuyBackPercent",
      "outputs": [],
      "stateMutability": "nonpayable",
      "type": "function"
    },
    {
      "inputs": [
        {
          "internalType": "uint256",
          "name": "newThreshold",
          "type": "uint256"
        }
      ],
      "name": "setBuyBackThreshold",
      "outputs": [],
      "stateMutability": "nonpayable",
      "type": "function"
    },
    {
      "inputs": [
        {
          "internalType": "uint256",
          "name": "percent",
          "type": "uint256"
        }
      ],
      "name": "setMaxTransactionAmount",
      "outputs": [],
      "stateMutability": "nonpayable",
      "type": "function"
    },
    {
      "inputs": [
        {
          "internalType": "uint256",
          "name": "percent",
          "type": "uint256"
        }
      ],
      "name": "setMaxWalletAmount",
      "outputs": [],
      "stateMutability": "nonpayable",
      "type": "function"
    },
    {
      "inputs": [
        {
          "internalType": "uint256",
          "name": "value",
          "type": "uint256"
        }
      ],
      "name": "setSwapThreshold",
      "outputs": [],
      "stateMutability": "nonpayable",
      "type": "function"
    },
    {
      "inputs": [
        {
          "internalType": "uint16",
          "name": "buyFee",
          "type": "uint16"
        },
        {
          "internalType": "uint16",
          "name": "sellFee",
          "type": "uint16"
        },
        {
          "internalType": "uint16",
          "name": "transferFee",
          "type": "uint16"
        }
      ],
      "name": "setTaxes",
      "outputs": [],
      "stateMutability": "nonpayable",
      "type": "function"
    },
    {
      "inputs": [],
      "name": "swapThreshold",
      "outputs": [
        {
          "internalType": "uint256",
          "name": "",
          "type": "uint256"
        }
      ],
      "stateMutability": "view",
      "type": "function"
    },
    {
      "inputs": [],
      "name": "symbol",
      "outputs": [
        {
          "internalType": "string",
          "name": "",
          "type": "string"
        }
      ],
      "stateMutability": "view",
      "type": "function"
    },
    {
      "inputs": [],
      "name": "timeDelayBetweenTx",
      "outputs": [
        {
          "internalType": "uint256",
          "name": "",
          "type": "uint256"
        }
      ],
      "stateMutability": "view",
      "type": "function"
    },
    {
      "inputs": [],
      "name": "totalDelayTime",
      "outputs": [
        {
          "internalType": "uint256",
          "name": "",
          "type": "uint256"
        }
      ],
      "stateMutability": "view",
      "type": "function"
    },
    {
      "inputs": [],
      "name": "totalSupply",
      "outputs": [
        {
          "internalType": "uint256",
          "name": "",
          "type": "uint256"
        }
      ],
      "stateMutability": "view",
      "type": "function"
    },
    {
      "inputs": [
        {
          "internalType": "address",
          "name": "to",
          "type": "address"
        },
        {
          "internalType": "uint256",
          "name": "amount",
          "type": "uint256"
        }
      ],
      "name": "transfer",
      "outputs": [
        {
          "internalType": "bool",
          "name": "",
          "type": "bool"
        }
      ],
      "stateMutability": "nonpayable",
      "type": "function"
    },
    {
      "inputs": [],
      "name": "transferDelayEnabled",
      "outputs": [
        {
          "internalType": "bool",
          "name": "",
          "type": "bool"
        }
      ],
      "stateMutability": "view",
      "type": "function"
    },
    {
      "inputs": [
        {
          "internalType": "address",
          "name": "from",
          "type": "address"
        },
        {
          "internalType": "address",
          "name": "to",
          "type": "address"
        },
        {
          "internalType": "uint256",
          "name": "amount",
          "type": "uint256"
        }
      ],
      "name": "transferFrom",
      "outputs": [
        {
          "internalType": "bool",
          "name": "",
          "type": "bool"
        }
      ],
      "stateMutability": "nonpayable",
      "type": "function"
    },
    {
      "inputs": [
        {
          "internalType": "address",
          "name": "newOwner",
          "type": "address"
        }
      ],
      "name": "transferOwnership",
      "outputs": [],
      "stateMutability": "nonpayable",
      "type": "function"
    },
    {
      "inputs": [],
      "name": "treasuryAddress",
      "outputs": [
        {
          "internalType": "address",
          "name": "",
          "type": "address"
        }
      ],
      "stateMutability": "view",
      "type": "function"
    },
    {
      "inputs": [
        {
          "internalType": "bool",
          "name": "newVal",
          "type": "bool"
        }
      ],
      "name": "updateGasLimitActive",
      "outputs": [],
      "stateMutability": "nonpayable",
      "type": "function"
    },
    {
      "inputs": [
        {
          "internalType": "uint256",
          "name": "percent",
          "type": "uint256"
        }
      ],
      "name": "updateMaxBuyLimit",
      "outputs": [],
      "stateMutability": "nonpayable",
      "type": "function"
    },
    {
      "inputs": [
        {
          "internalType": "uint256",
          "name": "newValue",
          "type": "uint256"
        }
      ],
      "name": "updateMaxGasPriceLimit",
      "outputs": [],
      "stateMutability": "nonpayable",
      "type": "function"
    },
    {
      "inputs": [
        {
          "internalType": "bool",
          "name": "newVal",
          "type": "bool"
        }
      ],
      "name": "updateTransferDelayEnabled",
      "outputs": [],
      "stateMutability": "nonpayable",
      "type": "function"
    },
    {
      "stateMutability": "payable",
      "type": "receive"
    }
  ],
  "bytecode": "0x60806040523480156200001157600080fd5b506040516200380438038062003804833981016040819052620000349162000ca9565b8585600362000044838262000e02565b50600462000053828262000e02565b505050620000706200006a6200085a60201b60201c565b6200085e565b8151600214620000ba5760405162461bcd60e51b815260206004820152601060248201526f125b9d985b1a5908185c99dd5b595b9d60821b60448201526064015b60405180910390fd5b8051600514620001005760405162461bcd60e51b815260206004820152601060248201526f125b9d985b1a5908185c99dd5b595b9d60821b6044820152606401620000b1565b6111948160018151811062000119576200011962000ece565b602002602001015161ffff161080156200015557506111948160028151811062000147576200014762000ece565b602002602001015161ffff16105b620001935760405162461bcd60e51b815260206004820152600d60248201526c0a8dede40d0d2ced0e840e8c2f609b1b6044820152606401620000b1565b81600181518110620001a957620001a962000ece565b6020026020010151600860006101000a8154816001600160a01b0302191690836001600160a01b03160217905550600061271082600081518110620001f257620001f262000ece565b602002602001015161ffff16866200020b919062000efa565b62000217919062000f1a565b90506200023d33826200022b878962000f3d565b62000237919062000f3d565b620008b0565b83156200025c576008546200025c906001600160a01b031685620008b0565b801562000271576200027161dead82620008b0565b8160038151811062000287576200028762000ece565b602002602001015161ffff16600014620002df5761271082600381518110620002b457620002b462000ece565b602002602001015161ffff1686620002cd919062000efa565b620002d9919062000f1a565b620002e1565b845b600a55815182906004908110620002fc57620002fc62000ece565b602002602001015161ffff1660001462000354576127108260048151811062000329576200032962000ece565b602002602001015161ffff168662000342919062000efa565b6200034e919062000f1a565b62000356565b845b600f5560078054600181810183557fa66cc928b5edb82af9bd49922954155ab7b0942694bea4ce44661d9a8736c68891820180546001600160a01b0319908116737a93936c57587a5a0de1bbc0d99b61139394698c1790915583548083019094559290910180549092167318bb1d7e5dd7dd0017a828dabf16472d9fd1c6ae17909155600d805480830182556000829052611f407fd7b6990105719101dabeb77144f2a3385c8033acd3af97e9423a695e81ad1eb59182015581548084019092556107d09101556040805160608101909152835190918291859190811062000442576200044262000ece565b602002602001015161ffff1681526020018360028151811062000469576200046962000ece565b60209081029190910181015161ffff908116835260009282018390528351601c80549386015160409096015183166401000000000261ffff60201b19968416620100000263ffffffff1990951692909316919091179290921793909316929092179091558351849190620004e157620004e162000ece565b6020908102919091010151601b80546001600160a01b0319166001600160a01b03909216919091179055600160186000620005246005546001600160a01b031690565b6001600160a01b03908116825260208083019390935260409182016000908120805495151560ff1996871617905560085490911681526018928390529081208054909316600190811790935560078054829062000585576200058562000ece565b6000918252602080832091909101546001600160a01b031683528201929092526040018120805460ff19169215159290921790915560078054600192601892909184908110620005d957620005d962000ece565b60009182526020808320909101546001600160a01b0390811684528382019490945260409283018220805495151560ff19968716179055308252601881528282208054909516600117909455683635c9adc5dea00000600955611f40600e55601155670de0b6b3a7640000601055601b54815163c45a015560e01b8152915192169263c45a0155926004808401938290030181865afa15801562000681573d6000803e3d6000fd5b505050506040513d601f19601f82011682018060405250810190620006a7919062000f53565b6001600160a01b031663c9c6539630601b60009054906101000a90046001600160a01b03166001600160a01b031663ad5c46486040518163ffffffff1660e01b8152600401602060405180830381865afa1580156200070a573d6000803e3d6000fd5b505050506040513d601f19601f8201168201806040525081019062000730919062000f53565b6040516001600160e01b031960e085901b1681526001600160a01b039283166004820152911660248201526044016020604051808303816000875af11580156200077e573d6000803e3d6000fd5b505050506040513d601f19601f82011682018060405250810190620007a4919062000f53565b600680546001600160a01b0319166001600160a01b039290921691821790556000908152601960205260409020805460ff1916600117905562000808620007f36005546001600160a01b031690565b601b546001600160a01b031660001962000973565b601b54620008249030906001600160a01b031660001962000973565b50505060129190915550506017805462ffff0019169055504260135564037e11d6006015556005601655610e1060145562000f8e565b3390565b600580546001600160a01b038381166001600160a01b0319831681179093556040519116919082907f8be0079c531659141344cd1fd0a4f28419497f9722a3daafe3b4186f6b6457e090600090a35050565b6001600160a01b038216620009085760405162461bcd60e51b815260206004820152601f60248201527f45524332303a206d696e7420746f20746865207a65726f2061646472657373006044820152606401620000b1565b80600260008282546200091c919062000f78565b90915550506001600160a01b038216600081815260208181526040808320805486019055518481527fddf252ad1be2c89b69c2b068fc378daa952ba7f163c4a11628f55a4df523b3ef910160405180910390a35050565b6001600160a01b038316620009d75760405162461bcd60e51b8152602060048201526024808201527f45524332303a20617070726f76652066726f6d20746865207a65726f206164646044820152637265737360e01b6064820152608401620000b1565b6001600160a01b03821662000a3a5760405162461bcd60e51b815260206004820152602260248201527f45524332303a20617070726f766520746f20746865207a65726f206164647265604482015261737360f01b6064820152608401620000b1565b6001600160a01b0383811660008181526001602090815260408083209487168084529482529182902085905590518481527f8c5be1e5ebec7d5bd14f71427d1e84f3dd0314c0f7b2291e5b200ac8c7c3b925910160405180910390a3505050565b505050565b634e487b7160e01b600052604160045260246000fd5b604051601f8201601f191681016001600160401b038111828210171562000ae15762000ae162000aa0565b604052919050565b600082601f83011262000afb57600080fd5b81516001600160401b0381111562000b175762000b1762000aa0565b602062000b2d601f8301601f1916820162000ab6565b828152858284870101111562000b4257600080fd5b60005b8381101562000b6257858101830151828201840152820162000b45565b506000928101909101919091529392505050565b60006001600160401b0382111562000b925762000b9262000aa0565b5060051b60200190565b80516001600160a01b038116811462000bb457600080fd5b919050565b600082601f83011262000bcb57600080fd5b8151602062000be462000bde8362000b76565b62000ab6565b82815260059290921b8401810191818101908684111562000c0457600080fd5b8286015b8481101562000c2a5762000c1c8162000b9c565b835291830191830162000c08565b509695505050505050565b600082601f83011262000c4757600080fd5b8151602062000c5a62000bde8362000b76565b82815260059290921b8401810191818101908684111562000c7a57600080fd5b8286015b8481101562000c2a57805161ffff8116811462000c9b5760008081fd5b835291830191830162000c7e565b60008060008060008060c0878903121562000cc357600080fd5b86516001600160401b038082111562000cdb57600080fd5b62000ce98a838b0162000ae9565b9750602089015191508082111562000d0057600080fd5b62000d0e8a838b0162000ae9565b96506040890151955060608901519450608089015191508082111562000d3357600080fd5b62000d418a838b0162000bb9565b935060a089015191508082111562000d5857600080fd5b5062000d6789828a0162000c35565b9150509295509295509295565b600181811c9082168062000d8957607f821691505b60208210810362000daa57634e487b7160e01b600052602260045260246000fd5b50919050565b601f82111562000a9b57600081815260208120601f850160051c8101602086101562000dd95750805b601f850160051c820191505b8181101562000dfa5782815560010162000de5565b505050505050565b81516001600160401b0381111562000e1e5762000e1e62000aa0565b62000e368162000e2f845462000d74565b8462000db0565b602080601f83116001811462000e6e576000841562000e555750858301515b600019600386901b1c1916600185901b17855562000dfa565b600085815260208120601f198616915b8281101562000e9f5788860151825594840194600190910190840162000e7e565b508582101562000ebe5787850151600019600388901b60f8161c191681555b5050505050600190811b01905550565b634e487b7160e01b600052603260045260246000fd5b634e487b7160e01b600052601160045260246000fd5b808202811582820484141762000f145762000f1462000ee4565b92915050565b60008262000f3857634e487b7160e01b600052601260045260246000fd5b500490565b8181038181111562000f145762000f1462000ee4565b60006020828403121562000f6657600080fd5b62000f718262000b9c565b9392505050565b8082018082111562000f145762000f1462000ee4565b6128668062000f9e6000396000f3fe60806040526004361061037a5760003560e01c8063768dc710116101d1578063c5f956af11610102578063deb5896e116100a0578063f2fde38b1161006f578063f2fde38b14610a33578063f311732214610a53578063f887ea4014610a73578063f901796614610a9357600080fd5b8063deb5896e146109c7578063df8408fe146109dd578063edf731c5146109fd578063efac458514610a1357600080fd5b8063c8c8ebe4116100dc578063c8c8ebe41461094a578063cd5f101d14610960578063d83067861461098d578063dd62ed3e146109a757600080fd5b8063c5f956af146108ea578063c6aca36b1461090a578063c876d0b91461092a57600080fd5b8063a2065e711161016f578063a9059cbb11610149578063a9059cbb1461086e578063aa4bde281461088e578063b62496f5146108a4578063bd74c046146108d457600080fd5b8063a2065e7114610818578063a335d4ff14610838578063a457c2d71461084e57600080fd5b80638d0cb35a116101ab5780638d0cb35a146107a55780638da5cb5b146107c557806395d89b41146107e35780639d0014b1146107f857600080fd5b8063768dc7101461073557806379cc6790146107655780637dee32901461078557600080fd5b8063313ce567116102ab5780635342acb4116102495780636f15d975116102235780636f15d975146106b457806370a08231146106ca578063715018a614610700578063738c6c091461071557600080fd5b80635342acb414610650578063560d52d4146106895780636aa5b37f1461069e57600080fd5b80633d90fff9116102855780633d90fff9146105cc57806342966c68146105e2578063452ed4f1146106025780634a569e941461063a57600080fd5b8063313ce5671461057057806332cde6641461058c57806339509351146105ac57600080fd5b80631630e97f116103185780631c06a7e1116102f25780631c06a7e1146104ba5780631e293c101461051057806323b872dd1461053057806327a14fc21461055057600080fd5b80631630e97f1461046f57806318160ddd1461048f5780631b11c874146104a457600080fd5b8063095ea7b311610354578063095ea7b3146103e7578063123e6cd81461041757806313fa254a14610439578063148829f51461045957600080fd5b80630445b6671461038657806306fdde03146103af578063094d776f146103d157600080fd5b3661038157005b600080fd5b34801561039257600080fd5b5061039c60095481565b6040519081526020015b60405180910390f35b3480156103bb57600080fd5b506103c4610ab2565b6040516103a69190612365565b3480156103dd57600080fd5b5061039c60145481565b3480156103f357600080fd5b506104076104023660046123c8565b610b44565b60405190151581526020016103a6565b34801561042357600080fd5b5061043761043236600461240b565b610b5e565b005b34801561044557600080fd5b5061039c61045436600461242d565b610bd7565b34801561046557600080fd5b5061039c600c5481565b34801561047b57600080fd5b5061043761048a36600461242d565b610bf8565b34801561049b57600080fd5b5060025461039c565b3480156104b057600080fd5b5061039c60155481565b3480156104c657600080fd5b50601c546104eb9061ffff808216916201000081048216916401000000009091041683565b6040805161ffff948516815292841660208401529216918101919091526060016103a6565b34801561051c57600080fd5b5061043761052b36600461242d565b610c6b565b34801561053c57600080fd5b5061040761054b366004612446565b610c9a565b34801561055c57600080fd5b5061043761056b36600461242d565b610cbe565b34801561057c57600080fd5b50604051601281526020016103a6565b34801561059857600080fd5b506104376105a7366004612487565b610ced565b3480156105b857600080fd5b506104076105c73660046123c8565b610d8a565b3480156105d857600080fd5b5061039c60165481565b3480156105ee57600080fd5b506104376105fd36600461242d565b610dac565b34801561060e57600080fd5b50600654610622906001600160a01b031681565b6040516001600160a01b0390911681526020016103a6565b34801561064657600080fd5b5061039c60115481565b34801561065c57600080fd5b5061040761066b3660046124ca565b6001600160a01b031660009081526018602052604090205460ff1690565b34801561069557600080fd5b5061039c603281565b3480156106aa57600080fd5b5061039c60125481565b3480156106c057600080fd5b5061039c60105481565b3480156106d657600080fd5b5061039c6106e53660046124ca565b6001600160a01b031660009081526020819052604090205490565b34801561070c57600080fd5b50610437610db9565b34801561072157600080fd5b5061043761073036600461240b565b610e51565b34801561074157600080fd5b506104076107503660046124ca565b60186020526000908152604090205460ff1681565b34801561077157600080fd5b506104376107803660046123c8565b610ec5565b34801561079157600080fd5b506104376107a036600461242d565b610ede565b3480156107b157600080fd5b506104376107c03660046124f7565b610f0d565b3480156107d157600080fd5b506005546001600160a01b0316610622565b3480156107ef57600080fd5b506103c4610f2f565b34801561080457600080fd5b5061043761081336600461242d565b610f3e565b34801561082457600080fd5b506104376108333660046124f7565b610f4b565b34801561084457600080fd5b5061039c61271081565b34801561085a57600080fd5b506104076108693660046123c8565b610f6f565b34801561087a57600080fd5b506104076108893660046123c8565b610fea565b34801561089a57600080fd5b5061039c600a5481565b3480156108b057600080fd5b506104076108bf3660046124ca565b60196020526000908152604090205460ff1681565b3480156108e057600080fd5b5061039c600b5481565b3480156108f657600080fd5b50600854610622906001600160a01b031681565b34801561091657600080fd5b5061043761092536600461242d565b610ff8565b34801561093657600080fd5b506017546104079062010000900460ff1681565b34801561095657600080fd5b5061039c600f5481565b34801561096c57600080fd5b5061039c61097b3660046124ca565b601a6020526000908152604090205481565b34801561099957600080fd5b506017546104079060ff1681565b3480156109b357600080fd5b5061039c6109c2366004612512565b611030565b3480156109d357600080fd5b5061039c600e5481565b3480156109e957600080fd5b506104376109f836600461254b565b61105b565b348015610a0957600080fd5b5061039c60135481565b348015610a1f57600080fd5b50610437610a2e36600461242d565b61108e565b348015610a3f57600080fd5b50610437610a4e3660046124ca565b61109b565b348015610a5f57600080fd5b50610622610a6e36600461242d565b611111565b348015610a7f57600080fd5b50601b54610622906001600160a01b031681565b348015610a9f57600080fd5b5060175461040790610100900460ff1681565b606060038054610ac190612580565b80601f0160208091040260200160405190810160405280929190818152602001828054610aed90612580565b8015610b3a5780601f10610b0f57610100808354040283529160200191610b3a565b820191906000526020600020905b815481529060010190602001808311610b1d57829003601f168201915b5050505050905090565b600033610b5281858561113b565b60019150505b92915050565b610b6661125f565b612710600e548261ffff16610b7b91906125d0565b1115610bce5760405162461bcd60e51b815260206004820181905260248201527f50657263656e742063616e7420626520686967686572207468616e203130302560448201526064015b60405180910390fd5b61ffff16601155565b600d8181548110610be757600080fd5b600091825260209091200154905081565b610c0061125f565b6402540be400811015610c665760405162461bcd60e51b815260206004820152602860248201527f6d6178206761732070726963652063616e74206265206c6f776572207468616e604482015267203130206757656960c01b6064820152608401610bc5565b601555565b610c7361125f565b61271081610c8060025490565b610c8a91906125e3565b610c9491906125fa565b600f5550565b600033610ca88582856112b9565b610cb385858561132d565b506001949350505050565b610cc661125f565b61271081610cd360025490565b610cdd91906125e3565b610ce791906125fa565b600a5550565b610cf561125f565b6126ac8361ffff16108015610d0f57506126ac8261ffff16105b610d4b5760405162461bcd60e51b815260206004820152600d60248201526c0a8dede40d0d2ced0e840e8c2f609b1b6044820152606401610bc5565b601c805461ffff94851663ffffffff199091161762010000938516939093029290921765ffff0000000019166401000000009190931602919091179055565b600033610b52818585610d9d8383611030565b610da791906125d0565b61113b565b610db6338261135f565b50565b610dc161125f565b601c5461119461ffff909116108015610de85750601c546111946201000090910461ffff16105b610e455760405162461bcd60e51b815260206004820152602860248201527f546f6f206869676874207461782c2063616e27742072656e6f756e6365206f776044820152673732b939b434b81760c11b6064820152608401610bc5565b610e4f6000611491565b565b610e5961125f565b6127106011548261ffff16610e6e91906125d0565b1115610ebc5760405162461bcd60e51b815260206004820181905260248201527f50657263656e742063616e7420626520686967686572207468616e20313030256044820152606401610bc5565b61ffff16600e55565b610ed08233836112b9565b610eda828261135f565b5050565b610ee661125f565b61271081610ef360025490565b610efd91906125e3565b610f0791906125fa565b60125550565b610f1561125f565b601780549115156101000261ff0019909216919091179055565b606060048054610ac190612580565b610f4661125f565b600955565b610f5361125f565b60178054911515620100000262ff000019909216919091179055565b60003381610f7d8286611030565b905083811015610fdd5760405162461bcd60e51b815260206004820152602560248201527f45524332303a2064656372656173656420616c6c6f77616e63652062656c6f77604482015264207a65726f60d81b6064820152608401610bc5565b610cb3828686840361113b565b600033610b5281858561132d565b60006110056002836125fa565b90504761101282306114e3565b600061101e824761261c565b905061102a8382611641565b50505050565b6001600160a01b03918216600090815260016020908152604080832093909416825291909152205490565b61106361125f565b6001600160a01b03919091166000908152601860205260409020805460ff1916911515919091179055565b61109661125f565b601055565b6110a361125f565b6001600160a01b0381166111085760405162461bcd60e51b815260206004820152602660248201527f4f776e61626c653a206e6577206f776e657220697320746865207a65726f206160448201526564647265737360d01b6064820152608401610bc5565b610db681611491565b6007818154811061112157600080fd5b6000918252602090912001546001600160a01b0316905081565b6001600160a01b03831661119d5760405162461bcd60e51b8152602060048201526024808201527f45524332303a20617070726f76652066726f6d20746865207a65726f206164646044820152637265737360e01b6064820152608401610bc5565b6001600160a01b0382166111fe5760405162461bcd60e51b815260206004820152602260248201527f45524332303a20617070726f766520746f20746865207a65726f206164647265604482015261737360f01b6064820152608401610bc5565b6001600160a01b0383811660008181526001602090815260408083209487168084529482529182902085905590518481527f8c5be1e5ebec7d5bd14f71427d1e84f3dd0314c0f7b2291e5b200ac8c7c3b925910160405180910390a3505050565b6005546001600160a01b03163314610e4f5760405162461bcd60e51b815260206004820181905260248201527f4f776e61626c653a2063616c6c6572206973206e6f7420746865206f776e65726044820152606401610bc5565b60006112c58484611030565b9050600019811461102a57818110156113205760405162461bcd60e51b815260206004820152601d60248201527f45524332303a20696e73756666696369656e7420616c6c6f77616e63650000006044820152606401610bc5565b61102a848484840361113b565b6113388383836116f8565b6113428383611c06565b1561134f5761134f611cbb565b61135a838383611e97565b505050565b6001600160a01b0382166113bf5760405162461bcd60e51b815260206004820152602160248201527f45524332303a206275726e2066726f6d20746865207a65726f206164647265736044820152607360f81b6064820152608401610bc5565b6001600160a01b038216600090815260208190526040902054818110156114335760405162461bcd60e51b815260206004820152602260248201527f45524332303a206275726e20616d6f756e7420657863656564732062616c616e604482015261636560f01b6064820152608401610bc5565b6001600160a01b0383166000818152602081815260408083208686039055600280548790039055518581529192917fddf252ad1be2c89b69c2b068fc378daa952ba7f163c4a11628f55a4df523b3ef910160405180910390a3505050565b600580546001600160a01b038381166001600160a01b0319831681179093556040519116919082907f8be0079c531659141344cd1fd0a4f28419497f9722a3daafe3b4186f6b6457e090600090a35050565b604080516002808252606082018352600092602083019080368337019050509050308160008151811061151857611518612645565b6001600160a01b03928316602091820292909201810191909152601b54604080516315ab88c960e31b81529051919093169263ad5c46489260048083019391928290030181865afa158015611571573d6000803e3d6000fd5b505050506040513d601f19601f82011682018060405250810190611595919061265b565b816001815181106115a8576115a8612645565b6001600160a01b039283166020918202929092010152601b5442916115d0913091168661113b565b601b5460405163791ac94760e01b81526001600160a01b039091169063791ac947906116099087906000908790899088906004016126bc565b600060405180830381600087803b15801561162357600080fd5b505af1158015611637573d6000803e3d6000fd5b5050505050505050565b601b54429061165d9030906001600160a01b031660001961113b565b601b5460405163f305d71960e01b81523060048201819052602482018690526000604483018190526064830152608482015260a481018390526001600160a01b039091169063f305d71990849060c40160606040518083038185885af11580156116cb573d6000803e3d6000fd5b50505050506040513d601f19601f820116820180604052508101906116f091906126f8565b505050505050565b6001600160a01b0383166117645760405162461bcd60e51b815260206004820152602d60248201527f45524332303a207472616e736665722066726f6d20746865205a45524f5f414460448201526c4452455353206164647265737360981b6064820152608401610bc5565b6001600160a01b0382166117ce5760405162461bcd60e51b815260206004820152602b60248201527f45524332303a207472616e7366657220746f20746865205a45524f5f4144445260448201526a455353206164647265737360a81b6064820152608401610bc5565b600081116118385760405162461bcd60e51b815260206004820152603160248201527f5472616e7366657220616d6f756e74206d7573742062652067726561746572206044820152707468616e205a45524f5f4144445245535360781b6064820152608401610bc5565b60175462010000900460ff16801561185e575060145460135461185b91906125d0565b42105b156119f9576005546001600160a01b0384811691161480159061188f5750601b546001600160a01b03838116911614155b80156118a957506006546001600160a01b03838116911614155b80156118be57506001600160a01b0382163014155b156119f9576012541561190e5760125481111561190e5760405162461bcd60e51b815260206004820152600e60248201526d26b0bc10213abc902634b6b4ba1760911b6044820152606401610bc5565b601754610100900460ff1615611970576015543a11156119705760405162461bcd60e51b815260206004820152601860248201527f4761732070726963652065786365656473206c696d69742e00000000000000006044820152606401610bc5565b336000908152601a60205260409020544210156119db5760405162461bcd60e51b815260206004820152602360248201527f5f7472616e736665723a3a205472616e736665722044656c617920656e61626c60448201526232b21760e91b6064820152608401610bc5565b6016546119e890426125d0565b336000908152601a60205260409020555b6005546001600160a01b03848116911614801590611a2557506005546001600160a01b03838116911614155b8015611a3957506001600160a01b03821615155b8015611a5057506001600160a01b03821661dead14155b8015611a6557506001600160a01b0382163014155b8015611a74575060175460ff16155b1561135a576001600160a01b03831660009081526019602052604090205460ff1615611b7457600f54811115611b0a5760405162461bcd60e51b815260206004820152603560248201527f427579207472616e7366657220616d6f756e742065786365656473207468652060448201527436b0bc2a3930b739b0b1ba34b7b720b6b7bab73a1760591b6064820152608401610bc5565b600a546001600160a01b038316600090815260208190526040902054611b3090836125d0565b111561135a5760405162461bcd60e51b815260206004820152601360248201527213585e081dd85b1b195d08195e18d959591959606a1b6044820152606401610bc5565b6001600160a01b03821660009081526019602052604090205460ff1615611b0a57600f5481111561135a5760405162461bcd60e51b815260206004820152603660248201527f53656c6c207472616e7366657220616d6f756e742065786365656473207468656044820152751036b0bc2a3930b739b0b1ba34b7b720b6b7bab73a1760511b6064820152608401610bc5565b306000908152602081905260408120546009548110158015611c2b575060175460ff16155b8015611c4557506006546001600160a01b03858116911614155b8015611c6957506006546001600160a01b0316600090815260208190526040812054115b8015611c8e57506001600160a01b03831660009081526018602052604090205460ff16155b8015611cb357506001600160a01b03841660009081526018602052604090205460ff16155b949350505050565b6017805460ff1916600117905530600090815260208190526040902054600b5415611dbc57600b54611ced818361261c565b6000600b5560075490925081905b8015611db857600081600114611d5057612710600d611d1b60018561261c565b81548110611d2b57611d2b612645565b906000526020600020015485611d4191906125e3565b611d4b91906125fa565b611d52565b825b9050611d8f816007611d6560018661261c565b81548110611d7557611d75612645565b6000918252602090912001546001600160a01b03166114e3565b6001821115611da557611da2818461261c565b92505b5080611db081612726565b915050611cfb565b5050505b8015611e8a5760115415611dee57611dee61271060115483611dde91906125e3565b611de891906125fa565b306114e3565b600e5415611e1457611e14612710600e5483611e0a91906125e3565b61092591906125fa565b6000612710601154600e54611e2991906125d0565b611e3390846125e3565b611e3d91906125fa565b611e47908361261c565b90508015611e6657600854611e669082906001600160a01b03166114e3565b60105415611e88576010544790811115611e8657611e868161dead611f72565b505b505b506017805460ff19169055565b6017546001600160a01b038416600090815260186020526040902054829160ff90811615911680611ee057506001600160a01b03841660009081526018602052604090205460ff165b15611ee9575060005b8015611f6057600080611efd8787876120d8565b90925090506000611f0e82846125d0565b1115611f5d5780611f1f838761261c565b611f29919061261c565b93508015611f495780600b6000828254611f4391906125d0565b90915550505b611f5d8730611f5884866125d0565b6121c1565b50505b611f6b8585846121c1565b5050505050565b6040805160028082526060820183526000926020830190803683375050601b54604080516315ab88c960e31b815290519394506001600160a01b039091169263ad5c4648925060048083019260209291908290030181865afa158015611fdc573d6000803e3d6000fd5b505050506040513d601f19601f82011682018060405250810190612000919061265b565b8160008151811061201357612013612645565b60200260200101906001600160a01b031690816001600160a01b031681525050308160018151811061204757612047612645565b6001600160a01b039283166020918202929092010152601b54604051637ff36ab560e01b815242929190911690637ff36ab59086906120919060009087908990889060040161273d565b60006040518083038185885af11580156120af573d6000803e3d6000fd5b50505050506040513d6000823e601f3d908101601f19168201604052611f6b9190810190612772565b6001600160a01b0383166000908152601960205260408120548190819081908190819060ff161561211b57601c546121149061ffff16856125d0565b9350612173565b6001600160a01b03881660009081526019602052604090205460ff161561215357601c546121149062010000900461ffff16856125d0565b601c5461216c90640100000000900461ffff16856125d0565b9350600190505b83156121935761271061218685896125e3565b61219091906125fa565b92505b806121b3576127106121a66032896125e3565b6121b091906125fa565b91505b509097909650945050505050565b6001600160a01b0383166122255760405162461bcd60e51b815260206004820152602560248201527f45524332303a207472616e736665722066726f6d20746865207a65726f206164604482015264647265737360d81b6064820152608401610bc5565b6001600160a01b0382166122875760405162461bcd60e51b815260206004820152602360248201527f45524332303a207472616e7366657220746f20746865207a65726f206164647260448201526265737360e81b6064820152608401610bc5565b6001600160a01b038316600090815260208190526040902054818110156122ff5760405162461bcd60e51b815260206004820152602660248201527f45524332303a207472616e7366657220616d6f756e7420657863656564732062604482015265616c616e636560d01b6064820152608401610bc5565b6001600160a01b03848116600081815260208181526040808320878703905593871680835291849020805487019055925185815290927fddf252ad1be2c89b69c2b068fc378daa952ba7f163c4a11628f55a4df523b3ef910160405180910390a361102a565b600060208083528351808285015260005b8181101561239257858101830151858201604001528201612376565b506000604082860101526040601f19601f8301168501019250505092915050565b6001600160a01b0381168114610db657600080fd5b600080604083850312156123db57600080fd5b82356123e6816123b3565b946020939093013593505050565b803561ffff8116811461240657600080fd5b919050565b60006020828403121561241d57600080fd5b612426826123f4565b9392505050565b60006020828403121561243f57600080fd5b5035919050565b60008060006060848603121561245b57600080fd5b8335612466816123b3565b92506020840135612476816123b3565b929592945050506040919091013590565b60008060006060848603121561249c57600080fd5b6124a5846123f4565b92506124b3602085016123f4565b91506124c1604085016123f4565b90509250925092565b6000602082840312156124dc57600080fd5b8135612426816123b3565b8035801515811461240657600080fd5b60006020828403121561250957600080fd5b612426826124e7565b6000806040838503121561252557600080fd5b8235612530816123b3565b91506020830135612540816123b3565b809150509250929050565b6000806040838503121561255e57600080fd5b8235612569816123b3565b9150612577602084016124e7565b90509250929050565b600181811c9082168061259457607f821691505b6020821081036125b457634e487b7160e01b600052602260045260246000fd5b50919050565b634e487b7160e01b600052601160045260246000fd5b80820180821115610b5857610b586125ba565b8082028115828204841417610b5857610b586125ba565b60008261261757634e487b7160e01b600052601260045260246000fd5b500490565b81810381811115610b5857610b586125ba565b634e487b7160e01b600052604160045260246000fd5b634e487b7160e01b600052603260045260246000fd5b60006020828403121561266d57600080fd5b8151612426816123b3565b600081518084526020808501945080840160005b838110156126b15781516001600160a01b03168752958201959082019060010161268c565b509495945050505050565b85815284602082015260a0604082015260006126db60a0830186612678565b6001600160a01b0394909416606083015250608001529392505050565b60008060006060848603121561270d57600080fd5b8351925060208401519150604084015190509250925092565b600081612735576127356125ba565b506000190190565b8481526080602082015260006127566080830186612678565b6001600160a01b03949094166040830152506060015292915050565b6000602080838503121561278557600080fd5b825167ffffffffffffffff8082111561279d57600080fd5b818501915085601f8301126127b157600080fd5b8151818111156127c3576127c361262f565b8060051b604051601f19603f830116810181811085821117156127e8576127e861262f565b60405291825284820192508381018501918883111561280657600080fd5b938501935b828510156128245784518452938501939285019261280b565b9897505050505050505056fea26469706673582212203b9838ccc9753e7bee57f27f71d6a57ee2f32ef23c409fc2d3440fd66e8343a264736f6c63430008130033",
  "linkReferences": {},
  "deployedLinkReferences": {}
}